:020000040800F2
:10000000205F01209D01000861400008833E000838
:100010005D400008E11500083549000800000000B7
:100020000000000000000000000000007D47000804
:10003000B9160008000000009D4000087F47000836
:10004000B7010008B7010008B7010008B7010008B0
:10005000B7010008B7010008B7010008B7010008A0
:10006000B7010008B7010008B7010008B701000890
:10007000B70100085916000869160008791600082B
:10008000B7010008B7010008B7010008B701000870
:10009000B7010008B7010008B7010008BB16000847
:1000A000B7010008B7010008B7010008B701000850
:1000B000B7010008B7010008B7010008B701000840
:1000C000B7010008B7010008B7010008B701000830
:1000D000B7010008B7010008B7010008B701000820
:1000E000B7010008B7010008B7010008B701000810
:1000F000B7010008B7010008B7010008B701000800
:10010000B7010008B7010008B7010008B7010008EF
:10011000B7010008B701000851480008B7010008FE
:10012000B7010008B7010008B7010008B7010008CF
:10013000B7010008B7010008B7010008B7010008BF
:10014000B7010008B7010008B7010008B7010008AF
:10015000B7010008B7010008B7010008D146000840
:10016000B7010008B7010008B7010008B70100088F
:10017000B7010008B70100080000000000000000FF
:10018000B7010008B7010008DFF80CD001F0B2F8A1
:1001900000480047314B0008205F01200648804797
:1001A00006480047FEE7FEE7FEE7FEE7FEE7FEE75C
:1001B000FEE7FEE7FEE7FEE70148000889010008C8
:1001C0005FEA930C26D000BFD0ED003A91ED001A03
:1001D000D0ED010A91ED013A33EE811AD0ED022AF9
:1001E00070EE830A91ED022A90ED030AD1ED031A15
:1001F00082ED001AC2ED010A72EE820A30EE210A87
:100200001030C2ED020A82ED030A10311032BCF147
:10021000010CD9D113F0030308BF7047B3F1004FAD
:100220002CD2002BD8BF7047001F091F121F13F0DC
:10023000010F0AD090ED010AD1ED010A001D091D40
:1002400030EE200A82ED010A121D5B0808BF7047DC
:1002500090ED010AD1ED010A30EE200A82ED010A8B
:1002600090ED020AD1ED020A0830083130EE200A82
:1002700082ED020A08325B1EEAD17047B0EC010A37
:100280005B1EF1EC010A30EE200AA2EC010AF5D166
:10029000704700005FEA930C26D000BF90ED000A83
:1002A000D1ED000A90ED012A91ED011A60EE201ABD
:1002B00090ED020A22EE012AD1ED020A90ED031A16
:1002C000C2ED001AD1ED031A20EE200A82ED012AB8
:1002D00061EE210A82ED020A1030C2ED030A1031EC
:1002E0001032BCF1010CD9D113F0030308BF7047E1
:1002F000B3F1004F2CD2002BD8BF7047001F091F4D
:10030000121F13F0010F0AD090ED010AD1ED010A7E
:10031000001D091D20EE200A82ED010A121D5B0856
:1003200008BF704790ED010AD1ED010A20EE200AC6
:1003300082ED010A90ED020AD1ED020A083008317F
:1003400020EE200A82ED020A08325B1EEAD17047D5
:10035000B0EC010A5B1EF1EC010A20EE200AA2ECCF
:10036000010AF5D170470000930814D090ED032ADC
:10037000D0ED000A90ED011AD0ED021A22EE002A0B
:1003800060EE800A21EE001A61EE801AE1EC040AA8
:1003900010305B1EEAD112F0030208BF7047B2F1C1
:1003A000004F24D2002AD8BF7047001F091F12F047
:1003B000010F07D0D0ED010A001D60EE800AC1EDEB
:1003C000010A091D520808BF704700BFD0ED010A9D
:1003D00060EE800AC1ED010AD0ED020A083060EE3D
:1003E000800AC1ED020A0831521EEFD17047F0ECCD
:1003F000010A521E60EE800AE1EC010AF7D1704753
:100400005FEA930C26D000BFD0ED003A91ED001AC0
:10041000D0ED010A91ED013A33EEC11AD0ED022A76
:1004200070EEC30A91ED022A90ED030AD1ED031A92
:1004300082ED001AC2ED010A72EEC20A30EE610AC4
:100440001030C2ED020A82ED030A10311032BCF105
:10045000010CD9D113F0030308BF7047B3F1004F6B
:100460002CD2002BD8BF7047001F091F121F13F09A
:10047000010F0AD090ED010AD1ED010A001D091DFE
:1004800030EE600A82ED010A121D5B0808BF70475A
:1004900090ED010AD1ED010A30EE600A82ED010A09
:1004A00090ED020AD1ED020A0830083130EE600A00
:1004B00082ED020A08325B1EEAD17047B0EC010AF5
:1004C0005B1EF1EC010A30EE600AA2EC010AF5D1E4
:1004D00070470000B5EEC00AF1EE10FA07D2DFED6A
:1004E0001E0AB4EEE00AF1EE10FAA8BF7047DFED85
:1004F0001B0AB5EEC00A60EE200ABDEEE01A11EE4E
:10050000100AF1EE10FA38BF401E00EE100A15492D
:10051000F7EE001AB8EEC00A30EEC00ADFED100A9E
:1005200060EE200ABCEEE00A10EE100AC0F30800EC
:1005300000EE100A01EB8000B8EE400A90ED011ABF
:1005400070EEC00A90ED000A71EEE01A21EE800A0A
:1005500000EE810A70470000CD024CB483F9223EC0
:1005600000000044B855000870B405880E8844683F
:10057000D1F804C05368B54208D140884988884200
:1005800001BF11888D425188884203D070BC6FF042
:100590000200704705FB00F1880827D094ED001A8F
:1005A000DCED000A94ED010ADCED011A31EE201AAF
:1005B000D4ED020A70EE211A9CED020A83ED001AB6
:1005C000C3ED011A94ED031ADCED031A30EE800A34
:1005D000401E71EE210A83ED020A04F11004C3EDFE
:1005E000030A03F110030CF1100CD7D111F0030032
:1005F00030D0B0F1004F30D200282BDD211F1B1F5F
:10060000ACF1040210F0010F0AD091ED010AD2ED15
:10061000010A091D121D30EE200A83ED010A1B1D7F
:10062000400817D091ED010AD2ED010A401E30EECC
:10063000200A83ED010A91ED020AD2ED020A01F1CE
:10064000080102F1080230EE200A83ED020A03F1EC
:100650000803E7D170BC00207047B4EC010A401ECB
:10066000FCEC010A30EE200AA3EC010AF5D1F1E717
:1006700001804280436070472DE9F34F84B00498B5
:1006800040680090486801900498B0F800E0458800
:10069000DFEDFE0A00200290B0EE600AAE4506D102
:1006A00008884988884204BF7146864504D06FF0A7
:1006B000020006B000F078BA01985FEA010C18BF9A
:1006C000B7EE001A3DD000BFBEEB0C0117D0B1F160
:1006D000004F80F01F82002911DD021F11F0010F71
:1006E0001CBFC2ED010A121D4B1006D0C2ED010A5B
:1006F000C2ED020A08325B1EF8D100EB8100BCF1AA
:100700000102A0EC011A19D0B2F1004F80F008826A
:10071000002A13DD031F12F0010F1CBFC3ED010AF5
:100720001B1D511008D000BFC3ED010AC3ED020A22
:10073000491E03F10803F7D100EB8200BCF1010C64
:10074000C2D14FF000080395002D14BFB0EE602A0F
:10075000002000F0BF8100BF009908FB05F001EB0D
:10076000800B0199DBED002A01EB80000346F0EEDF
:10077000421AC64552D9AEEB0802ABEB850112F026
:10078000010F17D001EB850191ED000AB5EEC00A0B
:10079000F1EE10FA07DDB4EEE10AF1EE10FA09DD30
:1007A000F0EE401A06E0B1EE400AF4EEC01AF1EEA7
:1007B00010FAF5D3521031D001EB850C9CED000AF4
:1007C000B5EEC00AF1EE10FA05DDB4EEE10AF1EE85
:1007D00010FA09DD06E0B1EE400AF4EEC01AF1EEBF
:1007E00010FA01D2F0EE401A01EBC50191ED000ABA
:1007F000B5EEC00AF1EE10FA05DDB4EEE10AF1EE55
:1008000010FA09DD06E0B1EE400AF4EEC01AF1EE8E
:1008100010FA01D2F0EE401A521ECDD1F5EEC01AF8
:10082000F1EE10FA00F07381F5EEC02A0126F1EE28
:1008300010FA0099D4BFB1EE620AB0EE620AB4EECB
:10084000610AF1EE10FA1CBFAEEB0802B2F1010C26
:1008500047D005FB08F201EB820292ED001A00BFBF
:10086000B0EE410A05FB06F4B5EEC00A00EB8404C5
:10087000F1EE10FACCBFF0EE400AF1EE400AF4EED1
:10088000610AF1EE10FA28D1B5EB080C11D0BCF1D9
:10089000004F7DD2BCF1000F0BDD00BF92ED000ACE
:1008A000D1ED000ABCF1010CE2EC010AA1EC010A55
:1008B000F4D129000ED0B1F1004F6AD2002909DD30
:1008C00094ED000AD0ED000A491EE4EC010AA0EC08
:1008D000010AF5D1012002900BE0761CBCF1010C5D
:1008E000BED10298012804D0F5EEC02AF1EE10FA2C
:1008F0007ED09BED000AB5EB08009A4659460646A5
:1009000022D0B0F1004F74D200281DDD091F10F075
:10091000010F06D0F0EE400A80EEA01A81ED011A18
:10092000091D401010D000BFD1ED010A401E80EE1D
:10093000801A81ED011A91ED021AC1EE000AC1ED93
:10094000020A01F10801EFD1280026D0B0F1004FD2
:100950007ED2002821DDAAF1040110F0010F06D09B
:10096000D1ED010A80EE801A81ED011A091D4010B7
:1009700013D000BFD1ED010A401E80EE801A81ED38
:10098000011AD1ED020A80EE801A81ED021A01E00F
:10099000CBE0D6E001F10801ECD1DDE900124FF027
:1009A00000095FEA0E0773D0C14504BF01EB860161
:1009B00002EB850274D091ED000ADC465046331EEE
:1009C00035D01C46B6F1004F7ED2002C2FDD0B1F18
:1009D000ABF1040C16F0010F0FD0F0EE400ADCED85
:1009E000011AB0EE601A00EEE11A83ED011A01E07F
:1009F0008DE0B1E01B1D0CF1040C741015D000BF8C
:100A0000D3ED010A9CED011A40EE410AC3ED010A43
:100A1000D3ED020A9CED021A0CF1080C40EE410ADB
:100A2000C3ED020A0833641EEAD101EB86012B00F4
:100A300036D0B3F1004F72D2002B31DDA2F1040C9D
:100A4000AAF1040013F0010F0CD0DCED010A00E064
:100A50008BE090ED011A001D40EE410ACCED010A39
:100A60000CF1040C5C1019D0DCED010A90ED011AB8
:100A700040EE410ACCED010ADCED020A90ED021ACB
:100A8000083040EE410ACCED020A03E0000000000D
:100A90000DE005E0641E0CF1080CE5D102EB8302C9
:100AA00001EB88017F1E09F101097FF47DAF0098F9
:100AB00008F10108001D00900398401E03907FF488
:100AC0004BAE0299012900E058E004BF06B000F0E7
:100AD0006BB800BFB5EEC00AF1EE10FA7FF4E9ADD5
:100AE00004990EFB05F3002B4A684FF000010BD967
:100AF00002EB810C9CED000AB5EEC00AF1EE10FA93
:100B000002D1491C8B42F3D88B427FF4D2AD6FF0F7
:100B10000400CEE5E0EC010A491EFBD1EFE538E028
:100B2000E0EC010A521EFBD108E692ED000AD1ED7D
:100B3000000ABCF1010CE2EC010AA1EC010AF4D1BB
:100B4000B7E694ED000AD0ED000A491EE4EC010A74
:100B5000A0EC010AF5D1BDE6D1ED000A401E80EE01
:100B6000801AA1EC011AF7D1EEE6D3ED000A401E7F
:100B700080EE801AA3EC011AF7D10EE7BCEC011A43
:100B8000D1ED000A5B1E40EE410AE1EC010AF5D10D
:100B90004DE7B0EC011AD2ED000A5B1E40EE410AAF
:100BA000E2EC010AF5D17BE730BCBDE8C08F000064
:100BB0002DE9F04F82B04668536801930588478855
:100BC0004B88002000900888874201BFB2F800C01F
:100BD0006545528893421EBF6FF0020002B000F0DC
:100BE00085B89FED412A4FEA970EC7F3400B00BF2F
:100BF000DDE9000202EB800A4A6898464FF00009DE
:100C0000B0EE420AB4465FEA0E0025D092ED001A1B
:100C1000DCED001A02EB8302DCED010A01EE810A31
:100C200092ED001A02EB8302401ED2ED001A02EB95
:100C3000830200EE810A9CED021ADCED030A000437
:100C40000CF1100C000C01EE210A92ED001A02EBDF
:100C5000830200EE810AD9D117F0030026D0ACF14F
:100C60000404A2EB830210F0010F08D002EB830210
:100C7000D4ED010A92ED001A241D00EE810A5FEA0C
:100C80000B0013D002EB830CD4ED010A9CED001A8B
:100C900002EBC302401E00EE810AD4ED020A92ED7F
:100CA000001A04F1080400EE810AEBD109F10100F9
:100CB000AAEC010A1FFA80F9486800EB8902A8F142
:100CC00001001FFA80F8B8F1000F99D1009806EBE7
:100CD0008706184480B20090681E05042D0C87D149
:100CE00002B0002000F002B80000000030BCBDE8F7
:100CF000C08F000010B4B0F800C00C8843684A6888
:100D0000A44503D140884988884203D010BC6FF0C5
:100D1000020070470CFB00F188081DD093ED002AFB
:100D2000D3ED010AD3ED021A93ED031A22EE002A45
:100D300060EE800A61EE801A21EE001A82ED002A30
:100D4000C2ED010AC2ED021A82ED031A401E02F141
:100D5000100203F11003E1D111F0030026D0B0F12D
:100D6000004F26D2002821DD191F121F10F0010F9D
:100D700007D0D1ED010A091D60EE800AC2ED010A1B
:100D8000121D400812D000BFD1ED010A401E60EED6
:100D9000800AC2ED010AD1ED020A01F1080160EEFC
:100DA000800AC2ED020A02F10802EDD110BC002057
:100DB0007047F3EC010A401E60EE800AE2EC010A83
:100DC000F7D1F3E770B405880E884468D1F804C001
:100DD0005368B54208D140884988884201BF1188CC
:100DE0008D425188884203D070BC6FF0020070477A
:100DF00005FB00F1880827D094ED001ADCED000A0D
:100E000094ED010ADCED011A31EE601AD4ED020A0C
:100E100070EE611A9CED020A83ED001AC3ED011A0F
:100E200094ED031ADCED031A30EEC00A401E71EE99
:100E3000610A83ED020A04F11004C3ED030A03F111
:100E400010030CF1100CD7D111F0030030D0B0F129
:100E5000004F30D200282BDD211F1B1FACF10402F4
:100E600010F0010F0AD091ED010AD2ED010A091D1F
:100E7000121D30EE600A83ED010A1B1D400817D0D9
:100E800091ED010AD2ED010A401E30EE600A83EDB9
:100E9000010A91ED020AD2ED020A01F1080102F104
:100EA000080230EE600A83ED020A03F10803E7D17D
:100EB00070BC00207047B4EC010A401EFCEC010A33
:100EC00030EE600AA3EC010AF5D1F1E72DE9F04F0D
:100ED00002884768B0F802804888D1F8049082B050
:100EE0004FF0000A1646824207BF098888456FF016
:100EF000020002B018BF00F073B84FEA980B02EB83
:100F000042000190C8F34000CDF8000009EB8A01CF
:100F1000BBF1000F33D0019801EB820C01EB800490
:100F20003B46E64601EBC2054FEA0B0093ED000A93
:100F3000401E81ED000A93ED010A01EB02118CEDD8
:100F4000000A93ED020A0CEB021C85ED000A93EDFA
:100F5000030A05EB021584ED000A04EB021403F109
:100F60001003E3D10EEB820000EB820000EB820164
:100F7000ABF10100504307EB0B1701EB001118F028
:100F8000030C21D03B1FA1EB82011CF0010F06D006
:100F900093ED010A01EB82011B1D81ED000A00980F
:100FA00080B100BF93ED010A01EB820401EBC201A5
:100FB00084ED000A93ED020A401E81ED000A03F160
:100FC0000803EFD107EB8C070AF101001FFA80FA42
:100FD000701E0604360C99D102B0002000F000B853
:100FE00030BCBDE8C08F00000649074A086850437E
:100FF00043F2390210440860400870470149086014
:1010000070470000240100206D4EC641D2B201E0BD
:1010100000F8012B491EFBD270470022F6E710B5FD
:1010200013460A4604461946FFF7F0FF204610BD56
:101030002DE9FE4F81EA030404F0004421F0004151
:1010400000944FF0000B23F0004350EA01045ED0FF
:1010500052EA03045BD0C3F30A54C1F30A552C448B
:10106000A4F2F3340194A0FB0254C1F3130141F440
:101070008011C3F3130343F4801301FB024400FB0C
:10108000034E840A970A44EA815447EA8357A4FB33
:10109000076802958D0A05FB07854FEA932C04FB30
:1010A0000C542705029D4FEA065847EA1637B5EB60
:1010B00008056EEB070C870E920E47EA811742EA8D
:1010C0008312A7FB0201B6EB0B0164EB00042B0DAE
:1010D00043EA0C335E1844EB1C50DA465146E7FBFA
:1010E0000201C5F313044FEA0B3343EA14534FEAEA
:1010F0000432019C43EA0603A4F10C040294009C10
:10110000CDE900B400F0A8F803B000F003B8002067
:101110000146F9E730BCBDE8C08F0EB5C10F80EACB
:10112000E0700844CA07002140F233438DE80E0006
:101130000A460B4600F090F803B000BD00F00042F4
:1011400030F000400AD0C10D01F56071C0F3160007
:1011500042EA0151C208400711437047002001468E
:101160007047000030B5041E71F1000404DB4FF03D
:101170000044404264EB0101141E73F1000405DBDE
:101180001C464FF00043524263EB04038B4208BFFE
:10119000824230BD01F0004330B421F0004150EAFA
:1011A000010206D00A0DA2F56072C1F31301002AF4
:1011B00002DC30BC00207047440F44EAC104C10087
:1011C000E01830BC00EBC250AFF300800029A8BF8C
:1011D0007047401C490008BF20F00100704710B460
:1011E000B0FA80FC00FA0CF050EA010404BF10BC15
:1011F000704749B1CCF1200421FA04F411FA0CF142
:1012000018BF012121430843A3EB0C01CB1D4FEA7A
:1012100000614FEA102042BF002010BC704700EB75
:10122000C35010440029A4BF10BC7047401C4900A3
:1012300008BF20F0010010BC704710B5141E73F1F8
:10124000000408DA401C41F1000192185B411A4386
:1012500001D120F0010010BD2DE9F04D92469B46D2
:1012600011B1B1FA81F202E0B0FA80F22032904678
:1012700000F052F804460F4640EA0A0041EA0B012A
:1012800053465A46084313D0114653EA010019D079
:10129000C8F14002504600F04EF805460E46504652
:1012A0005946424600F038F8084305D0012004E0D2
:1012B00020463946BDE8F08D0020054346EAE07639
:1012C0002C4337430A986305E40AA0EB0800002288
:1012D000FD0A44EA47540A3002D500200146E9E7F6
:1012E000010510196941DDE9084500196941BDE8AA
:1012F000F04DA2E7064C074D06E0E06840F0010320
:1013000094E8070098471034AC42F6D3FEF740FF4C
:10131000BC5D0008DC5D0008202A04DB203A00FAEE
:1013200002F1002070479140C2F1200320FA03F33C
:10133000194390407047202A04DB203A21FA02F03A
:101340000021704721FA02F3D040C2F120029140FF
:10135000084319467047000000B58FB04FF4807005
:101360000790602001900020089009900A90069054
:101370000C900D900E900C4803F072F910B1012002
:101380000FB000BD41F2883201A9074801F0C0F951
:1013900008B10120F4E70549034802F081FE08B1D5
:1013A0000120EDE70020EBE72801002080A90300E1
:1013B00010B5224822490860084601F0FBF908B13F
:1013C000012010BD00F03EF802201D4948600421B4
:1013D0001B4881600021C1604FF4000090FAA0F02A
:1013E000B0FA80F0401E164908610021144841619E
:1013F000816101F04BFB08B10120E2E7104803F0E6
:10140000D7F808B10420DCE701210D4803F050F8BB
:1014100008B10120D5E70121094802F0ABFF08B16E
:101420000120CEE7012006494860084601F02EFB66
:1014300008B10120C5E70020C3E70000001000A0AC
:101440002801002000B587B000BF1A48006D40F4A5
:101450008070184908650846006D00F4807001909E
:1014600000BF00BF0846006B40F480700863084668
:10147000006B20F48070086300BF0846C06C40F029
:101480001000C8640846C06C00F01000019000BF56
:1014900000BF4FF47C400290022003900020049093
:1014A000032005900A20069002A9034800F024FEBC
:1014B00007B000BD001002400010004870B58EB0AB
:1014C00004460D4616464FF480700690EB200090BF
:1014D0004FF4406007904FF40050039001954FF493
:1014E0004040089000200490AA2002904FF04070E5
:1014F0000990042005900A9600200B900C900D9006
:1015000041F288326946084801F002F910B1012021
:101510000EB070BD2146044801F03CFC08B101202A
:10152000F6E70020F4E70000280100202DE9F04351
:101530008FB081460D461646E8B2C0F58078B045BA
:1015400000D9B0462C46AF194FF480700790382070
:1015500001904FF4406008904FF400500490002038
:1015600009904FF040700A90002006900C900D906A
:101570000E9000BF0294CDF82C80184803F070F84C
:1015800018B101200FB0BDE8F08341F2883201A903
:10159000124801F0BDF808B10120F3E741F28832AA
:1015A00049460E4801F014FE08B10120EAE741F275
:1015B00088310A4802F074FD08B10120E2E7444492
:1015C000C14404F58070B84201D9381B01E04FF4E2
:1015D00080708046BC42CDD30020D3E72801002094
:1015E00000BFFEE770B50446A56A284600F038F94A
:1015F0000120287170BD70B50446A56A284600F028
:1016000064F80120287170BD70B50546AC6A206988
:1016100040F004002061204600F025F901202071EF
:1016200070BD70B50546AC6A206940F004002061C9
:10163000204600F04DF80120207170BD70B50446C1
:10164000A56A284600F00DF970BD70B50446A56A7C
:10165000284600F03BF870BD10B5024800F036FB9C
:1016600010BD0000C059012010B5024800F02EFB4B
:1016700010BD0000085A012010B5024800F026FBFA
:1016800010BD0000945A012030B590F8444004F099
:101690001C050124AC40056C6C60046863608468C0
:1016A000102C04D10468A2600468E16003E00468BF
:1016B000A1600468E26030BD704710B54FF400705F
:1016C00000F00CFD10BD00BFFEE77047704770478B
:1016D00070472DE9F04704460D4616464FF00009C5
:1016E0002869012800D100BF2868042800D100BF64
:1016F00000BF6079012802D10220BDE8F0870120F7
:10170000607100BF022020712868042855D1EEB90D
:1017100000F0F4FD81460CE000F0F0FDA0EB0900C4
:10172000012806D9206940F00800206103202071BB
:10173000E3E72068406B00F400400028ECD1012072
:1017400000F018FCA8692168086419E00CE000F0BA
:10175000D5FDA0EB0900012806D9206940F008005A
:10176000206103202071C8E72068406B00F0004032
:101770000028ECD1012000F0FDFBA8692168486435
:101780002068806C06F0100240F2FF3191408843DF
:1017900006F01002E96991400843216888642068D6
:1017A000C06C06F01002FF219140884306F0100241
:1017B000296A914008432168C864286901280FD12B
:1017C0002068876B06F010011F2088408743D5F8FA
:1017D000148006F0100008FA00F0074320688763C1
:1017E0002068C76B06F01001072088408743A9686E
:1017F00028680843E96840EA010806F0100108FA81
:1018000001F007432068C7632068006806F01002F3
:101810004FF4804191408843216808602068076840
:1018200006F0100140F6FC7088408743D5F804802C
:1018300006F0100108FA01F00743206807602068ED
:10184000006806F01002C0219140884321680860BA
:101850000120207100BF0020607100BF00BF4CE775
:10186000704770477047704710B50446206800689D
:1018700000F40050B0F5005F19D12068406B00F40F
:101880000050B0F5005F12D104202071206940F0B3
:10189000010020614FF4005021684863206800680F
:1018A00020F48050216808602046FFF7DBFF2068A5
:1018B000006800F00050B0F1005F19D12068406B63
:1018C00000F00050B0F1005F12D1042020712069B7
:1018D00040F0020020614FF000502168486320680A
:1018E000006820F08050216808602046FFF7EFFE76
:1018F00010BD10B504460CB9012010BD207920B9E7
:1019000000206071204600F009F8022020710020BC
:101910002061012020710020EFE7000010B586B0A3
:101920000446142101A8FFF778FB38492068884253
:101930006AD100BF3648806D40F000503449886558
:101940000846806D00F00050009000BF00BF00BF4F
:101950000846C06C40F00100C8640846C06C00F046
:101960000100009000BF00BF3020019003200290D2
:101970000020039001A94FF0904000F0BDFB2548E6
:101980002549086006204860102123488160002115
:10199000C16080210161490041618900816120218C
:1019A000C1610021016200F011FA08B1FFF78BFE5E
:1019B00000BF1948A060846200BF16481430174960
:1019C0000860052048601021144881600021C16032
:1019D0008021016149004161890081612021C1614B
:1019E0000021016200F0F2F908B1FFF76CFE00BFC0
:1019F0000A48E060846200BF00221146362000F0F1
:101A0000EEFC362000F0DEFC06B010BD0074004095
:101A10000010024030000240C0590120085A012045
:101A20002DE9F04704460D4617469946DDF820801B
:101A30004FF0000A00BF6079012802D10220BDE802
:101A4000F0870120607100BF0220207135BB3F4844
:101A5000A168C8623E48A16808633E48A16848631F
:101A60002068006840F4805021680860B8F1000FD9
:101A700006D0B8F1040F07D0B8F1080F0CD107E079
:101A8000206800F1080A08E0206800F10C0A04E070
:101A9000206800F1100A00E000BF26E02E48E1684F
:101AA000C8622E48E16808632D48E16848632068F1
:101AB000006840F0805021680860B8F1000F06D03F
:101AC000B8F1040F07D0B8F1080F0CD107E0206877
:101AD00000F1140A08E0206800F1180A04E0206808
:101AE00000F11C0A00E000BF00BF6DB9206800686B
:101AF00040F40050216808604B4652463946A068C1
:101B000000F0EAF906460CE02068006840F000505A
:101B1000216808604B4652463946E06800F0DCF91F
:101B2000064600BF0020607100BF4EB92068006803
:101B300005F010020121914008432168086003E08C
:101B4000206940F004002061304678E7E515000880
:101B50003D16000809160008F71500084B16000886
:101B6000231600080146002209B9012070470868C1
:101B7000006820F00E000B6818600868006820F00C
:101B800001000B68186091F8440000F01C0301206C
:101B900098400B6C5860012081F8250000BF0020A0
:101BA00081F8240000BF1046E0E770B50446002528
:101BB00094F82500022803D00420E063012520E0EA
:101BC0002068006820F00E00216808602068006826
:101BD00020F001002168086094F8440000F01C0126
:101BE00001208840216C4860012084F8250000BF56
:101BF000002084F8240000BFA06B10B12046A16B28
:101C00008847284670BD0000014609B90120704789
:101C10000868006820F001000A681060294A086816
:101C200090420BD2284A0868801A1422B0FBF2F0C6
:101C3000800048642448083808640AE0214A08689B
:101C4000801A1422B0FBF2F0800048641D48083866
:101C5000086400200A68106091F8440000F01C023B
:101C6000012090400A6C5060174A083A086C904274
:101C70000DD1D0F8A80091F8442002F01C030F22E7
:101C80009A409043104A083AC2F8A8000CE00D4868
:101C9000A030006891F8442002F01C030F229A4003
:101CA0009043084AA03210600020C862086348636D
:101CB0008863C86381F8250000BF81F8240000BF55
:101CC00000BFA4E7080402400800024070B50446C3
:101CD000206C05682068066894F8440000F01C0138
:101CE000042088402840E0B106F00400C8B1206814
:101CF000006800F0200028B92068006820F0040087
:101D00002168086094F8440000F01C010420884019
:101D1000216C4860206B002856D02046216B8847F4
:101D200052E094F8440000F01C0102208840284052
:101D300018B306F0020000B32068006800F020002D
:101D400040B92068006820F00A002168086001207E
:101D500084F8250094F8440000F01C01022088401B
:101D6000216C486000BF002084F8240000BFE06AB6
:101D700050B32046E16A884726E094F8440000F01A
:101D80001C01082088402840F0B106F00800D8B1B6
:101D90002068006820F00E002168086094F8440074
:101DA00000F01C0101208840216C48600120E063A4
:101DB00084F8250000BF002084F8240000BF606B79
:101DC00010B12046616B884770BD000010B5014618
:101DD00009B9012010BD3E4B086898420BD23D4B1B
:101DE0000868C01A1423B0FBF3F080004864394837
:101DF000083808640AE0364B0868C01A1423B0FBA0
:101E0000F3F080004864324808380864022081F802
:101E100025000868026847F6F0708243D1E90203A2
:101E200018430B6918434B6918438B691843CB69F6
:101E300018430B6A18430243086802608868B0F5CB
:101E4000804F3AD0234B083B086C98421BD1D0F806
:101E5000A80091F8443003F01C040F23A3409843DA
:101E60001C4BA033186091F8443003F01C03486801
:101E70009840184B083BD3F8A8301843154B083B43
:101E8000C3F8A80019E01248A030006891F8443067
:101E900003F01C040F23A34098430D4BA03318609C
:101EA00091F8443003F01C0348689840084BA03375
:101EB0001B681843064BA03318600020C86301203C
:101EC00081F82500002081F8240000BF82E700008F
:101ED00008040240080002402DE9F04104460D4686
:101EE00016461F464FF0000800BF94F82400012852
:101EF00002D10220BDE8F081012084F8240000BF57
:101F000094F8250001282CD1022084F82500002017
:101F1000E0632068006820F00100216808603B460B
:101F2000324629462046FFF7AFFB206B30B12068D0
:101F3000006840F00E00216808600BE0206800682F
:101F400020F00400216808602068006840F00A0062
:101F5000216808602068006840F00100216808607E
:101F600006E000BF002084F8240000BF4FF0020804
:101F70004046BFE770B5044600F0C0F90646254666
:101F8000681C00B16D1C00BF00F0B8F9801BA842AE
:101F9000FAD370BDF0B50B46002187E001258D40D6
:101FA00005EA0302002A7DD005684F000326BE40E3
:101FB00035430560CE0800F1200555F826504E0740
:101FC000F70E0F26BE40B543CF0800F1200646F8B5
:101FD000275085684F000326BE40B543856046689C
:101FE00001258D40AE434660C5684F000326BE40C4
:101FF000B543C560C66A01258D40AE43C6622E4D0D
:102000008E0855F826408D072E0F0F25B5402C4021
:10201000B0F1904F01D100251EE0284DA84201D11A
:10202000012519E0264DA84201D1022514E0254DD5
:10203000A84201D103250FE0234DA84201D1042578
:102040000AE0224DA84201D1052505E0204DA84215
:1020500001D1062500E007258E07360FB540A542C1
:1020600023D18D072E0F0F2505FA06F4124D8E0889
:1020700055F82650A543104E8F0846F82750154DA9
:102080002D689543134E3560351D2D689543361DDB
:102090003560351D2D689543361D3560351D2D681D
:1020A000954300E001E0361D3560491C23FA01F537
:1020B000002D7FF473AFF0BD08000140000400481C
:1020C00000080048000C00480010004800140048B8
:1020D00000180048000401407047000010B5044695
:1020E00004480068204020B1024804602046FFF701
:1020F000F3FF10BD1404014078B503460022E5E06B
:10210000012696400D6805EA0604002C7DD04D6836
:10211000022D02D04D68122D13D1D60803F12005EF
:1021200055F826005507EE0E0F25B540A843560773
:10213000F60E0D69B5402843D60803F1200545F891
:102140002600186856000325B540A8430D7905F010
:1021500003055600B540284318604D68012D08D08E
:102160004D68022D05D04D68112D02D04D68122DFD
:1021700013D1986856000325B540A8435600CD6892
:10218000B54028439860586801259540A8430D79CB
:10219000C5F300159540284358600D7905F00305F7
:1021A000032D09D1D86A01259540A8430D79C5F3BF
:1021B000C00595402843D862D86856000325B5402D
:1021C000A84356008D68B5402843D8604D6805F097
:1021D0008055B5F1805F78D100BF3F4D2D6E45F041
:1021E00001053D4E356635462D6E05F0010500951D
:1021F00000BF00BF4FEAB635960855F82600950790
:102200002E0F0F25B540A84300E05EE0B3F1904FDC
:1022100001D100251EE0314DAB4201D1012519E06D
:102220002F4DAB4201D1022514E02E4DAB4201D11E
:1022300003250FE02C4DAB4201D104250AE02B4DC4
:10224000AB4201D1052505E0294DAB4201D1062560
:1022500000E007259607360FB5402843254D960820
:1022600045F82600244D2868A0434D6805F48035C4
:10227000B5F5803F00D120431F4D28602D1D2868F3
:10228000A0434D6805F40035B5F5003F00D120436B
:10229000194D2D1D28602D1D2868A0434D6805F49B
:1022A0008015B5F5801F00D12043134D08352860F7
:1022B0002D1D2868A0434D6805F40015B5F5001FD5
:1022C00000D120430C4D0C352860521C0D68D540C0
:1022D000002D7FF415AF78BD0010024000040048C7
:1022E00000080048000C0048001000480014004896
:1022F000001800480800014000040140014800683F
:10230000704700001C01002002480068401C014981
:10231000086070471C01002010B50024032000F065
:102320009FF8002000F008F808B1012401E000F057
:102330001BF8204610BD000070B504460025094872
:1023400000684FF47A71B0FBF1F6304601F000FC02
:1023500008B1012504E000222146501E00F03FF89C
:10236000284670BD2001002008B500BF0D48006E52
:1023700040F001000B4908660846006E00F00100BD
:10238000009000BF00BF00BF0846806D40F0805045
:1023900088650846806D00F08050009000BF00BF47
:1023A00008BD00000010024000BF00F01F02012124
:1023B0009140034A430942F8231000BF70470000D0
:1023C00080E100E000BF00F01F02012191404209BE
:1023D000920002F1E022C2F8001100BF70472DE91F
:1023E000F05F80460D461646002701F03BFE07468B
:1023F00039462A46334601F00700C0F1070ABAF110
:10240000040F02D94FF0040A01E0C0F1070AD146D7
:1024100000F1040ABAF1070F02D24FF0000A01E0FE
:10242000A0F1030AD4464FF0010A0AFA09FAAAF108
:10243000010A0AEA020A0AFA0CFA4FF0010B0BFA37
:102440000CFBABF1010B0BEA030B4AEA0B04214630
:10245000404601F00FFE00F000B830BCBDE8C09F60
:1024600000BF00F00702064B19684FF6FF03194042
:10247000044B0B4343EA0221014B196000BF704734
:102480000CED00E00000FA050246B2F5007F2AD10B
:102490001D48006800F4C060B0F5007F32D01A48D3
:1024A000006820F4C06040F40070174B18601748B3
:1024B000006832235843164BB0FBF3F0411C00E098
:1024C000491E1148406900F48060B0F5806F01D169
:1024D0000029F5D10C48406900F48060B0F5806FA8
:1024E00010D1032070470848006800F4C060B0F5C0
:1024F000806F07D00448006820F4C06040F480601A
:10250000014B18600020EDE7007000402001002022
:1025100040420F000248006800F4C06070470000AD
:1025200000700040F8B504460025FFF7E7FE0646B8
:1025300094F8390000F0020000283ED000BF0020CF
:1025400084F8380000BF2068006800F0040070B113
:102550002068006820F0040021680860606BFFF7C5
:1025600001FB05461DB1E06B40F00400E06320680C
:10257000006840F0020021680860206C33460122A8
:1025800002210090204602F045F805465DB9022080
:102590002168C860206C334600222021009020462C
:1025A00002F038F8054645B92068406920F04060DF
:1025B00021684861012084F839002846F8BD704739
:1025C00070B50446002594F8390000F0020028B3E5
:1025D00000BF002084F8380000BF082084F83900CC
:1025E0002068006820F4F8102168086020680068FE
:1025F00000F0040098B12068006820F00400216811
:1026000008600F48616B8863606BFFF7CEFA28B1F2
:10261000012084F839002046FFF7D1FF0EE00220A8
:102620002168C8602068006840F4003021680860B4
:102630002068006840F0020021680860284670BDEC
:10264000E54200082DE9F84304460E461546984633
:10265000FFF754FE8146B06900B100BFF06900B1D8
:1026600000BF306A00B100BF00BF94F838000128F5
:1026700002D10220BDE8F883012084F8380000BFB1
:1026800094F8390001283AD10020E063422084F810
:1026900039004B46002220212046CDF8008001F071
:1026A000B9FF074657BB28682168886268682168B7
:1026B0004862A8682168C8622068006820F4400069
:1026C000296941F48001084321680860E868B06224
:1026D0004FF000623146204601F010FD4B460122CA
:1026E00008212046CDF8008001F094FF07462FB95D
:1026F00008202168C860012084F8390000E0022722
:1027000000BF002084F8380000BF3846B2E77047A9
:102710002DE9F84304460D461746FFF7EFFD8046C6
:10272000A86900B100BFE86900B100BF286A00B124
:1027300000BF00BF94F83800012802D10220BDE894
:10274000F883012084F8380000BF94F8390001288C
:1027500028D10020E063022084F83900434600229B
:1027600020212046009701F055FF0646DEB90022E1
:102770002946204601F0C2FC686A78B94346012226
:1027800002212046009701F045FF06465EB902206F
:102790002168C860012084F8390004E0012084F831
:1027A000390000E0022600BF002084F8380000BF96
:1027B0003046C4E710B504460CB9012010BD00BF77
:1027C00094F83800012801D10220F7E7012084F8AD
:1027D000380000BF2068006820F001002168086010
:1027E000204600F0B7F90020E06384F8390000BF0C
:1027F00084F8380000BF00BFE0E770477047000072
:102800002DE9F0410446206886682068076806F0D4
:102810000400002848D007F48020002844D0206815
:1028200000F1200594F8390012281AD112E0606AEC
:1028300048B1E06900782870E069401CE061606A96
:10284000401E606206E02068006820F48020216855
:10285000086005E020688068C0F380000028E6D1A9
:102860001EE094F8390022281AD112E0206B48B1FA
:102870002878A16A0870A06A401CA062206B401EE4
:10288000206306E02068006820F48020216808604A
:1028900005E020688068C0F380000028E6D100BF12
:1028A0002046FFF7ABFFEDE006F00200002872D0F3
:1028B00007F4003000286ED002202168C86020682C
:1028C000006820F4E0202168086094F8390012289C
:1028D0001CD12068006800F0040068B1206800681E
:1028E00020F0040021680860606B0068006820F038
:1028F0000100616B096808602046FFF761FE012056
:1029000084F83900204600F0D1FCBBE094F839008F
:10291000222835D12068006800F0040070B12068DA
:10292000006820F0040021680860606B006800689F
:1029300020F00100616B0968086017E0206800F171
:1029400020050CE0206B48B12878A16A0870A06AC5
:10295000401CA062206B401E206300E005E0206860
:10296000806800F4F8500028ECD100BF2046FFF743
:1029700027FE012084F83900204600F0D3FA81E0D8
:1029800094F83900022807D1012084F83900204644
:10299000FFF7BDFE76E016E094F83900082871D103
:1029A0002068406920F0406021684861012084F877
:1029B0003900E06B18B92046FFF701FE62E02046BF
:1029C000FFF71BFF5EE006F00800B8B107F4002037
:1029D000A0B108202168C8602068006800F4800069
:1029E00040B12068006820F41020216808600120B0
:1029F00084F83900204600F0E9FB43E006F00100CE
:102A000098B307F4803080B301202168C860206843
:102A1000006820F4702021680860E06B40F002003C
:102A2000E0632068006800F00400B8B12068006826
:102A300020F00400216808601348616B8863606BB4
:102A4000FFF7B3F8F0B1E06B40F00400E063012061
:102A500084F839002046FFF7D0FE13E0012084F807
:102A600039002046FFF7C9FE0CE0FFE706F0100032
:102A700040B107F4801028B110202168C8602046BA
:102A800000F0A5FBBDE8F081E5420008F8B504467A
:102A9000FFF734FC06460CB90120F8BD00BF94F8DE
:102AA0003800012801D10220F7E7012084F838001E
:102AB00000BF94F8390050B9002084F8380020464F
:102AC00000F06CF841F28831204600F07DFB206870
:102AD000006820F47061A068401E41EA002021686F
:102AE0000860206C3346002220210090204601F02F
:102AF00091FD054615BB2179E06840EA0160216837
:102B00000968124A1140084321680860208A6169F7
:102B100041EA0040A1690843216849680C4A114014
:102B20000843216848602068006840F0010021687F
:102B300008600020E063012084F8390000BF002015
:102B400084F8380000BF2846A7E70000EFFFFF0029
:102B5000FEF8E0FF10B504460C492068884214D105
:102B60000B48006D20F4807009490865032109486D
:102B7000FFF710FA4FF440610748FFF70BFA606B5C
:102B8000FFF742F84720FFF70FFC10BD001000A030
:102B900000100240000400480010004810B586B044
:102BA0000446142101A8FEF738FA37492068884204
:102BB00068D100BF3548006D40F480703349086526
:102BC0000846006D00F48070009000BF00BF00BF99
:102BD0000846C06C40F00200C8640846C06C00F0B3
:102BE0000200009000BF00BF00BF0846C06C40F06C
:102BF0001000C8640846C06C00F01000009000BFD0
:102C000000BF0320019002200290002003900320C7
:102C100004900A20059001A91D48FFF76DFA4FF4B2
:102C20004060019002200290002003900320049055
:102C30000A20059001A91748FFF75EFA16481749C0
:102C4000086005204860002114488160C16080212F
:102C5000016189004161890081610021C1610162D6
:102C6000FFF7B4F808B1FEF72EFD00BF0B48606314
:102C7000846200BF002211464720FFF7B0FB4720C7
:102C8000FFF7A0FB06B010BD001000A0001002402E
:102C9000000400480010004858000240945A0120E7
:102CA0002DE9F84F04460E4617460025FFF726FB90
:102CB00080462068D0F81890206800F1200A00BFF4
:102CC00094F83800012802D1022000F05FB80120FA
:102CD00084F8380000BF94F8390001284ED1002054
:102CE000E063002E44D0222084F839002068006977
:102CF000401C206320680069401CE062A6622068D6
:102D0000406920F0406040F08060216848612068A0
:102D1000C0F8189013E04346012206212046009790
:102D200001F078FC054605B10CE09AF80000A16AB4
:102D30000870A06A401CA062206B401E2063206BBC
:102D40000028E8D100BF7DB9434601220221204678
:102D5000009701F05FFC054635B902202168C86084
:102D60002046FFF7DFFB0546012084F8390006E026
:102D7000E06B40F00800E063012500E0022500BFA1
:102D8000002084F8380000BF28469EE718BCBDE844
:102D9000E08F00002DE9F04104460E460027206830
:102DA000D0F8188020680069451C00BF94F83800EE
:102DB000012802D10220BDE8F081012084F838000A
:102DC00000BF94F8390001287ED10020E063002E76
:102DD0007BD0606B406908B9256330E0606B406967
:102DE000B0F5807F13D105F0010018B9207A00F00A
:102DF000010048B1E06B40F00800E063012700BF2C
:102E0000002084F838001AE06808206317E0606B3F
:102E10004069B0F5007F12D105F0030018B9207A9F
:102E200000F0030048B1E06B40F00800E0630127C8
:102E300000BF002084F8380001E0A8082063002FBC
:102E400068D1222084F8390003202168C860206BF3
:102E5000E062A6623048616BC8623048616B08630B
:102E60002F48616B48630020616B88630021606BB1
:102E70008160606B0068006820F01000616B8968F9
:102E80000843616B09680860E36A226802F1200167
:102E90003246606BFFF720F8F8B92068406920F0EF
:102EA000406040F08060216848612068C0F8188068
:102EB00000BF002084F8380000BF2068006840F49C
:102EC00080302168086001E01EE013E0206800689F
:102ED00040F00400216808601CE00127E06B40F02E
:102EE0000400E063012084F8390000BF002084F86A
:102EF00038000FE0E06B40F00800E063012700BFFE
:102F0000002084F8380005E0022700BF002084F884
:102F1000380000BF38464EE74F43000865430008BD
:102F20002743000801467D480068A0B34FF47A703B
:102F30007B4A106021E07A4A106800EBD072521090
:102F4000A0EB420252B17748754A126830F812007D
:102F5000754A12681044744A106009E07148704A5A
:102F6000126830F81200714A126810446F4A1060FB
:102F70006B480068401C6A4A106069480068B0F5F8
:102F8000FA6FD8DB6A48006800F5FA50684A1060AA
:102F90000020624A10606748006820B30020604A41
:102FA000106012E064485E4A126800EB820090ED07
:102FB000000A62485A4A126800EB820080ED000A5B
:102FC00057480068401C564A106055480068B0F5E4
:102FD000FA6FE7DB5648006800F5FA50544A106073
:102FE0000020544A10605648006800287ED0002017
:102FF0004B4A106082E05048494A126800EB820058
:1030000090ED000A4D48464A126800EB820080EDC0
:10301000000A434A106800EBD0725210A0EB420243
:1030200092B346483E4A126800EB820090ED000AD7
:103030004448D0ED000AB4EEE00AF1EE10FA09DDE2
:103040003E48374A126800EB820090ED000A3D4886
:1030500080ED000A3948324A126800EB820090ED98
:10306000000A3948D0ED000AB4EEE00AF1EE10FA99
:103070003FD232482A4A126800EB820090ED000AE3
:10308000314880ED000A34E0FFE72C48244A1268FA
:1030900000EB820090ED000A2C48D0ED000AB4EE5F
:1030A000E00AF1EE10FA09DD24481D4A126800EB2F
:1030B000820090ED000A254880ED000A1F48184A5A
:1030C000126800EB820090ED000A2148D0ED000A62
:1030D000B4EEE00AF1EE10FA0BD21848104A12686A
:1030E00000EB820090ED000A194800E015E080ED49
:1030F000000A0B480068401C094A10600848006834
:10310000B0F5FA6FFFF677AF0948006800F5FA509E
:10311000074A106000200A4A10607047F80000203B
:1031200018010020AC200020000100200401002034
:10313000FC000020E00000206C010020EC3F00209B
:10314000DC000020080100200C01002010010020FC
:103150001401002001461748006850B30020164AA9
:10316000106021E0144A106800EBD0725210A0EBFE
:10317000420252B11148104A126830F81200104A47
:10318000126810440E4A106009E00C480A4A12689E
:1031900030F812000B4A126810440A4A10600648C0
:1031A0000068401C044A106003480068B0F57A7F4C
:1031B000D8DB7047F800002018010020AC20002068
:1031C000000100200401002001647047704770472F
:1031D0002DE9F84304460E4617460025FFF78EF802
:1031E0008046206800F1200900BF94F838000128CB
:1031F00002D10220BDE8F883012084F8380000BF26
:1032000094F83900012849D10020E063002E3FD016
:10321000122084F8390020680069401C6062206830
:103220000069401C2062E6612068406920F040602F
:103230002168486113E0434601220421204600979B
:1032400001F0E8F9054605B10CE0E069007889F87D
:103250000000E069401CE061606A401E6062606AD4
:103260000028E8D100BF7DB9434601220221204653
:10327000009701F0CFF9054635B902202168C860F2
:103280002046FFF74FF90546012084F8390006E093
:10329000E06B40F00800E063012500E0022500BF7C
:1032A000002084F8380000BF2846A3E770470000DC
:1032B0002DE9F04104460D4614B90120BDE8F08126
:1032C0005548006800F00700A8420ED25248006836
:1032D00020F007002843504908600846006800F0C5
:1032E0000700A84201D00120E8E7207800F00100A3
:1032F000002840D06068032806D14848006800F0E4
:103300000070D8B90120D9E76068022806D1434887
:10331000006800F4003088B90120CFE7606830B958
:103320003E48006800F0020040B90120C6E73B4873
:10333000006800F4806008B90120BFE73748806862
:1033400020F003006168084334498860FEF7D6FF27
:10335000064608E0FEF7D2FF801B41F28831884222
:1033600001D90320AAE72D48806800F00C006168AD
:10337000B0EB810FEED1207800F00200022807D1D7
:103380002648806820F0F000A1680843234988603F
:103390002148006800F00700A8420ED91E480068C6
:1033A00020F0070028431C4908600846006800F028
:1033B0000700A84201D0012080E7207800F0040037
:1033C000042807D11548806820F4E060E1680843CC
:1033D00012498860207800F00800082808D10F48BA
:1033E000806820F46050216940EAC1000B49886080
:1033F00000F01AF809498968C1F30311084A515CC1
:1034000001F01F01C840074908600020FEF794FF43
:103410000746384652E700000020024000100240F4
:1034200070550008200100202DE9F0410024002003
:10343000DFF800C1DCF808C00CF00C01DFF8F4C0C4
:10344000DCF80CC00CF0030719B10C291ED1012FB8
:103450001CD1DFF8E0C0DCF800C00CF0080CBCF1B7
:10346000000F06D1DFF8CCC0DCF894C0CCF3032405
:1034700005E0DFF8C0C0DCF800C0CCF30314DFF8CF
:10348000B8C05CF8244041B9204606E0042901D1C7
:103490002A4802E0082900D129480C2947D1DFF841
:1034A00094C0DCF80CC00CF00305DFF888C0DCF831
:1034B0000CC0CCF3021C0CF10103012D1FD0022D16
:1034C00002D0032D1AD10CE0DFF870C0BCFBF3FC76
:1034D000DFF86080D8F80C80C8F306280CFB08F2EF
:1034E00018E0DFF85CC0BCFBF3FCDFF84880D8F8DC
:1034F0000C80C8F306280CFB08F20BE000BFB4FBFD
:10350000F3FCDFF83080D8F80C80C8F306280CFBF9
:1035100008F200BF00BFDFF81CC0DCF80CC0CCF321
:10352000416C0CF1010C4FEA4C06B2FBF6F0BDE821
:10353000F081000000100240885500080024F400CB
:1035400000127A002DE9F843044614B90120BDE8C1
:10355000F883F848806800F00C06F648C06800F070
:103560000307207800F01000102875D11EB10C2E32
:1035700074D1012F72D1EF48006800F0020018B139
:10358000A06908B90120E2E7EA48216A006800F072
:10359000080020B1E748006800F0F00005E0E548C9
:1035A0009430006800F47060000981421FD9206ADD
:1035B00001F096F808B10120C9E700BFDD480068B6
:1035C00040F00800DB4908600846006820F0F00081
:1035D000216A0843D749086000BF0846406820F4C4
:1035E0007F40E16940EA0120D24948601EE000BF07
:1035F000D048006840F00800CE49086008460068DE
:1036000020F0F000216A0843CA49086000BF08465C
:10361000406820F47F40E16940EA0120C5494860E4
:10362000206A01F05DF808B1012090E7FFF7FCFE89
:10363000C0498968C1F30311BF4A515C01F01F0101
:10364000C840BE4908600020FEF776FE8046B8F10B
:10365000000F4ED040467AE74BE0FFE7A06980B309
:10366000B448006840F00100B2490860FEF746FE29
:10367000054606E0FEF742FE401B022801D9032062
:1036800065E7AC48006800F002000028F2D000BFF7
:10369000A848006840F00800A6490860084600688D
:1036A00020F0F000216A0843A249086000BF0846E4
:1036B000406820F47F40E16940EA01209D4948606C
:1036C00017E0FFE79B48006820F001009949086077
:1036D000FEF714FE054606E0FEF710FE401B02282A
:1036E00001D9032033E79348006800F00200002866
:1036F000F2D1207800F0010000285CD0082E03D021
:103700000C2E0AD1032F08D18A48006800F400303B
:1037100088B3606878BB012019E700BF6068B0F526
:10372000803F06D18348006840F4803081490860BA
:103730001AE06068B0F5A02F0BD17E48006840F415
:1037400080207C4908600846006840F480300860AA
:103750000AE07848006820F480307649086008461E
:10376000006820F48020086000BF606890B1FEF718
:10377000C5FD054607E01EE0FEF7C0FD401B6428BE
:1037800001D90320E3E66B48006800F4003000280C
:10379000F2D010E0FEF7B2FD054606E0FEF7AEFD02
:1037A000401B642801D90320D1E66248006800F478
:1037B00000300028F2D1207800F00200022852D117
:1037C000042E03D00C2E14D1022F12D159480068B8
:1037D00000F4806018B1E06808B90120B7E65548E8
:1037E000406820F0F850217C40EA0160514948606F
:1037F00039E0E06800B34F48006840F480704D49FC
:103800000860FEF77BFD054606E0FEF777FD401BEE
:10381000022801D903209AE64648006800F4806037
:103820000028F2D04348406820F0F850217C40EA5C
:1038300001604049486016E03E48006820F480700E
:103840003C490860FEF75AFD054606E0FEF756FDC6
:10385000401B022801D9032079E63648006800F4AD
:1038600080600028F2D1207800F00800082836D1C6
:103870006069D0B12F489430006840F001002D49B4
:10388000C1F89400FEF73AFD054606E0FEF736FD66
:10389000401B022801D9032059E6264894300068CD
:1038A00000F002000028F1D019E0224894300068AE
:1038B00020F001001F49C1F89400FEF71FFD0546E6
:1038C00006E0FEF71BFD401B022801D903203EE65F
:1038D00018489430006800F002000028F1D12078E8
:1038E00000F00400042870D14FF000091148806DE9
:1038F00000F0805078B900BF0E48806D40F08050D5
:103900000C4988650846806D00F08050009000BF2B
:1039100000BF4FF001090A48006800F48070F0B958
:103920000748006840F4807005490860FEF7E6FC2F
:1039300005460EE0001002407055000820010020EE
:1039400000700040FEF7DAFC401B022801D903207A
:10395000FDE57C48006800F480700028F2D000BFCC
:10396000A068012808D17848006840F00100764935
:103970009039C1F8900021E0A06805280FD1724865
:10398000006840F0040070499039C1F89000084682
:10399000D0F8900040F00100C1F890000EE06A48B5
:1039A000006820F0010068499039C1F8900008468D
:1039B000D0F8900020F00400C1F8900000BFA0688B
:1039C000A0B1FEF79BFC054609E02EE0FEF796FC51
:1039D000401B41F28831884201D90320B7E55A489B
:1039E000006800F002000028F0D012E0FEF786FC2C
:1039F000054608E0FEF782FC401B41F28831884210
:103A000001D90320A3E55048006800F00200002817
:103A1000F0D1B9F1010F07D14B489038806D20F0FB
:103A2000805049499039886500BFA06AF0B30C2ED8
:103A300074D0A06A022853D143489038006820F01F
:103A40008070414990390860FEF758FC054606E051
:103A5000FEF754FC401B022801D9032077E53A48C1
:103A60009038006800F000700028F1D1206B401EF3
:103A70000101606B41EA0021A06B000941EA40406E
:103A8000E16A0843A18F0122C2EB510140EA415192
:103A90004020005DC2EB500041EA40602A49903965
:103AA000C8600846006840F0807000E048E00860A8
:103AB0000846C06840F08070C860FEF71FFC0546ED
:103AC00006E0FEF71BFC401B022801D903203EE55F
:103AD0001D489038006800F000700028F1D02FE0F9
:103AE00019489038006820F08070174990390860B4
:103AF0000846006800F0205020B90846C06820F051
:103B00000300C86010489038C068104908400E494A
:103B10009039C860FEF7F2FB054607E00EE0FEF7BD
:103B2000EDFB401B022801D9032010E50648903820
:103B3000006800F000700028F1D101E0012006E5E6
:103B4000002004E50070004090100240FFFFEEFEF0
:103B500070B504462546681EB0F1807F01D3012070
:103B60000FE0681E4FF0E02148610F214FF0FF3059
:103B700000F080FA00204FF0E02188610720086102
:103B8000002070BD704770477047000030B5024696
:103B90000B4600BF92F83C00012801D1022030BD45
:103BA000012082F83C0000BF022082F83D0010682E
:103BB000416810688468114D1068A84203D0104D08
:103BC0001068A84203D121F470015868014321F024
:103BD00070011868014324F0800498680443106859
:103BE000416010688460012082F83D0000BF002021
:103BF00082F83C0000BF00BFD1E70000002C01406C
:103C00000034014010B504460CB9012010BD94F8F1
:103C10003D0028B9002084F83C00204600F00CF854
:103C2000022084F83D00211D206800F01DFE0120C7
:103C300084F83D000020E9E738B504460D492068C6
:103C4000884215D100BF0C48806D40F010000A4931
:103C500088650846806D00F01000009000BF00BF2E
:103C6000002211463620FEF7BAFB3620FEF7AAFBEB
:103C700038BD000000100040001002400146022044
:103C800081F83D00086880680C4A1040062805D07D
:103C9000086880681040B0F5803F01D1012000E045
:103CA000002028B90868006840F001000A68106028
:103CB000012081F83D00002070470000070001004E
:103CC000704710B5044620680069C0F34000D8B1C1
:103CD0002068C068C0F34000B0B16FF002002168F6
:103CE0000861012020772068806900F0030018B186
:103CF0002046FFF7E5FF05E0204600F0BEF820462D
:103D000000F0BCF80020207720680069C0F3800034
:103D1000D8B12068C068C0F38000B0B16FF0040073
:103D200021680861022020772068806900F44070D3
:103D300018B12046FFF7C4FF05E0204600F09DF8CB
:103D4000204600F09BF80020207720680069C0F32F
:103D5000C000D8B12068C068C0F3C000B0B16FF037
:103D6000080021680861042020772068C06900F0FD
:103D7000030018B12046FFF7A3FF05E0204600F03E
:103D80007CF8204600F07AF800202077206800694F
:103D9000C0F30010D8B12068C068C0F30010B0B103
:103DA0006FF0100021680861082020772068C06942
:103DB00000F4407018B12046FFF782FF05E020466E
:103DC00000F05BF8204600F059F8002020772068CA
:103DD000006900F0010058B12068C06800F00100DF
:103DE00030B16FF0010021680861204600F047F80B
:103DF00020680069C0F3C01058B12068C068C0F3E3
:103E0000C01030B16FF08000216808612046FFF7D4
:103E1000BAFE20680069C0F3002058B12068C0686D
:103E2000C0F3C01030B16FF4807021680861204683
:103E3000FFF7A8FE20680069C0F3801058B1206821
:103E4000C068C0F3801030B16FF040002168086195
:103E5000204600F015F820680069C0F3401058B102
:103E60002068C068C0F3401030B16FF020002168B6
:103E700008612046FFF788FE10BD70477047704705
:103E8000704700BFFEE7000000B589B024216846F6
:103E9000FDF7C3F81348144908600846FDF729FDEB
:103EA00008B1FDF710FC00200090042001900020D4
:103EB00002900120039000200490002269460A48E5
:103EC000FDF707FC08B1FDF7FEFB0120039010226F
:103ED00069460548FDF7FDFB08B1FDF7F4FB09B0A5
:103EE00000BD000000740040AC59012008B500BFBF
:103EF0001248806C40F00100104988640846806CCC
:103F000000F00100009000BF00BF002211460D200C
:103F1000FEF765FA0D20FEF755FA002211460E2035
:103F2000FEF75DFA0E20FEF74DFA002211460F2033
:103F3000FEF755FA0F20FEF745FA08BD00100240C3
:103F400000B587B0142102A8FDF767F800BF1D482F
:103F5000C06C40F001001B49C8640846C06C00F00A
:103F60000100019000BF00BF00BF0846C06C40F0D8
:103F70000200C8640846C06C00F00200019000BF57
:103F800000BF00BF0846C06C40F01000C86408467F
:103F9000C06C00F01000019000BF00BF48150290F7
:103FA000094803900020049002A90848FEF7A4F8ED
:103FB000002211461720FEF712FA1720FEF702FA28
:103FC00007B000BD001002400000111000100048B2
:103FD00010B50C48FEF7EEFB0B480A4908600020BC
:103FE00048600221074881600021C16016210161FB
:103FF000002141618161FEF749FD08B1FDF763FBD6
:1040000010BD0000505A0120001000A00EB5002085
:104010000090019002900F480F490860002048600E
:1040200000210D48816041F28831C1600021816129
:10403000FFF7E8FD08B1FDF746FB202000900020C7
:10404000029069460448FFF7A1FD08B1FDF73BFB6C
:104050000EBD000000100040DC5A012000BFFEE74A
:104060007047000002480068C0F30220704700005B
:104070000CED00E010B5002807DA0A07140E054A17
:1040800000F00F031B1FD45403E00A07130E024A6B
:10409000135410BD18ED00E000E400E0704700008C
:1040A00030B595B005460C464FF480700D90052054
:1040B000079000200E900F904FF08070109000201D
:1040C0000C90129013901490019001200290002007
:1040D0000590012004901020039080040690234650
:1040E00001AA07A90448FEF7ADFA10B1012015B0E6
:1040F00030BD0020FBE700002801002010B54B6A0E
:1041000033B1B2F1406F03D08B6A5B1E0468236148
:104110008B69002B76D00B6AE3B38B680468E3618C
:10412000CB69FBB1D1E90B3423434C6B23434C6A7D
:1041300023438C8A43EA84430C6923430C6A234358
:10414000CC682343CC6923438C6923430C68234305
:10415000134304686361B2F1406F02D04B68046896
:10416000A361BEE0D1E90B3423434C6B23434C6A7B
:1041700023438C8A43EA84430C6923430C6A234318
:10418000CC6923438C6923430C682343134304689D
:104190006361A6E0FFE7CB69EBB1D1E90B342343C0
:1041A0004C6B23434C6A23438C8A43EA84430C6A56
:1041B0002343CC682343CC6923438C6923430C6895
:1041C0002343134304686361B2F1406FC9D04B6865
:1041D0000468A36185E0D1E90B3423434C6B23438E
:1041E0004C6A23438C8A43EA84430C6A2343CC6998
:1041F00023438C6923430C6823431343046863619E
:104200006FE0FFE70B6AC3B38B680468E361CB69B7
:10421000EBB1D1E90B3423434C6B23434C6A23436A
:104220008C8A43EA84430C6923430C6A2343CC6899
:104230002343CC6923438C6923431343046863619C
:10424000B2F1406F4DD04B680468A36149E0D1E9F9
:104250000B3423434C6B23434C6A23438C8A43EA3D
:1042600084430C6923430C6A2343CC6923438C6940
:10427000234313430468636133E0FFE7CB69DBB199
:10428000D1E90B3423434C6B23434C6A23438C8A80
:1042900043EA84430C6A2343CC682343CC69234319
:1042A0008C692343134304686361B2F1406F18D0F3
:1042B0004B680468A36114E04B6A93B1D1E90B34F5
:1042C00023434C6B23434C6A23438C8A43EA844345
:1042D0000C6A2343CC6923438C692343134304684A
:1042E000636110BD70B50546AC6A00202063606252
:1042F00094F8390008280FD102202168C86020688E
:10430000006840F40030216808602068006840F0D0
:1043100002002168086005E0012084F83900204689
:10432000FEF76BFA70BD70B50546AC6A00202063DD
:104330006062E06B40F00400E0632068006820F0F9
:104340000400216808602046FEF73AF970BD014676
:10435000886A002202630268126842F4003203682D
:104360001A60704770B50446A56A2846FEF7F2FE4B
:1043700070BD000030B58FB005460C464FF480701C
:104380000790052001900020089009904FF0807060
:104390000A900020069001200B9000200C900D90B8
:1043A0000E9041F2883201A94048FEF7B1F910B1F0
:1043B00001200FB030BD41F2883269463B48FEF71C
:1043C0006FFC08B10120F4E71520019002200B904A
:1043D00041F2883201A93548FEF79AF908B1012067
:1043E000E7E741F288320DF101013048FEF758FC51
:1043F00008B10120DDE72D4800F032F908B10120B5
:10440000D7E7012C06D19DF8020040F002008DF89C
:10441000020005E09DF8020020F002008DF8020085
:104420000120019003200B9041F2883201A91F481E
:10443000FEF76EF908B10120BBE741F28832694608
:104440001A48FEF7C5FE08B10120B2E741F28831F3
:104450001648FFF725FE08B10120AAE715200190B4
:1044600002200B9041F2883201A91048FEF750F962
:1044700008B101209DE741F2883269460B48FEF7FA
:104480000FFC08B1012094E79DF8010000F0020044
:1044900008B9012C05D09DF8010000F0020010B110
:1044A0000CB9012085E7002083E7000028010020E7
:1044B00030B58FB005460C464FF48070079005204C
:1044C00001900020089009904FF080700A90002021
:1044D000069001200B9000200C900D900E9041F260
:1044E000883201A93148FEF713F910B101200FB04D
:1044F00030BD41F2883269462C48FEF7D1FB08B145
:104500000120F4E7294800F0ABF808B10120EEE7FC
:10451000012C05D19DF8000040F04000009004E01F
:104520009DF8000020F0400000900120019041F231
:10453000883201A91D48FEF7EBF808B10120D6E743
:1045400041F2883269461948FEF742FE08B101205F
:10455000CDE741F288311548FFF7A2FD08B10120EF
:10456000C5E70520019041F2883201A90F48FEF706
:10457000CFF808B10120BAE741F2883269460B480A
:10458000FEF78EFB08B10120B1E79DF8000000F0B6
:10459000400008B9012C05D09DF8000000F0400053
:1045A00010B10CB90120A2E70020A0E728010020EB
:1045B00010B58EB004464FF48070069066200090CF
:1045C000002007900890099005900B900C900D909A
:1045D00041F2883269460E48FEF79AF810B1012080
:1045E0000EB010BD9920009041F28832694608480B
:1045F000FEF78EF808B10120F2E741F28831044855
:10460000FFF74EFD08B10120EAE70020E8E70000CF
:10461000280100202DE9F04104460E461746984631
:10462000069D12E0681C80B1FDF768FEA0EB080053
:10463000A84200D84DB9042084F83900E06B40F05E
:104640000100E0630120BDE8F0812068806830400F
:1046500008B1012000E00020B842E3D10020F2E7D9
:1046600010B594B004464FF480700C90062006906C
:1046700000200D900E900F900B90119012901390BF
:1046800041F2883206A91148FEF742F810B1012024
:1046900014B010BD02200090019000200490012071
:1046A00003901020029080040590052006904FF0A2
:1046B00080700F9041F288336A4606A90348FDF7DF
:1046C000C1FF08B10120E3E70020E1E72801002055
:1046D00010B50248FEF794F810BD0000505A0120B2
:1046E000F8B5044600262348806D00F0805018B1CC
:1046F000FDF710FF054616E000BF1E48806D40F034
:1047000080501C4988650846806D00F080500090FC
:1047100000BF00BFFDF7FEFE05461648806D20F085
:10472000805014498865B5F5007F07D1802C10D9D9
:10473000A02C01D902260CE001260AE0802C01D928
:10474000032606E0802C01D1022602E0702C00D165
:1047500001260948006820F0070030430649086038
:104760000846006800F00700B04201D00120F8BD03
:104770000020FCE70010024000200240704710B506
:10478000FDF7C2FD10BD00B597B0442106A8FCF7A7
:1047900044FC142101A8FCF740FC102006900120E5
:1047A0000C9000200D9060200E90022010900121AE
:1047B0001191129128211391072114910221159131
:1047C000169106A8FEF7BEFE08B1FCF77CFF0F208D
:1047D0000190032002900020039004900590042192
:1047E00001A8FEF765FD08B1FCF76DFF4FF40070FE
:1047F000FDF74AFE08B1FCF766FF17B000BD0000E8
:104800001048006840F470000E4908600E480068C7
:1048100040F001000C4908600020886008460068EC
:104820000A490840084908608814C86008460068BA
:1048300020F48020086000208861C8030149803985
:104840000860704788ED00E000100240FFFFF6EAC4
:1048500010B50348FFF735FA0248FDF705F810BD1B
:10486000DC5A0120AC59012010B50268294B98424E
:104870000ED0B0F1804F0BD0274B984208D0274B79
:10488000984205D0264B984202D0264B984203D13D
:1048900022F070024B681A431E4B984217D0B0F1B9
:1048A000804F14D01C4B984211D01C4B98420ED014
:1048B0001B4B98420BD01B4B984208D01A4B984286
:1048C00005D01A4B984202D0194B984203D122F4DA
:1048D0004072CB681A4322F080034C6943EA040219
:1048E00002608B68C3620B6883620A4B98420BD0EC
:1048F0000C4B984208D00C4B984205D00B4B984279
:1049000002D00B4B984201D10B6903630123436131
:1049100010BD0000002C01400004004000080040D1
:10492000000C0040003401400040014000440140C0
:104930000048014000BFFEE702E008C8121F08C19E
:10494000002AFAD170477047002001E001C1121F10
:10495000002AFBD1704700000146B5EEC00AF1EE17
:1049600010FA05DBF1EEC00AC1ED000A0020704725
:10497000DFED030AC1ED000A4FF0FF30F7E700005A
:104980000000000000B52DED0A8B83B0504890ED7B
:10499000000AB0EE408A90ED010AF0EE409A90EDE8
:1049A000020AB0EE40AA90ED030AF0EE408A38EE1B
:1049B000280AB0EE409A29EE090AF0EE40BA28EE35
:1049C000280A09EECA0AB0EE40CAB1EE001AF0EEAB
:1049D0006B0A41EE4C0AB0EE600A02A8FFF7BCFF7A
:1049E0009DED020A39EE000AF0EE000A80EE201A70
:1049F000F0EE41AA9DED020A39EE400AF0EE000AFF
:104A000080EE201AB0EE41BA3248C0ED00AA80ED27
:104A100003BA9FED310A80ED010A9FED2F0A80ED68
:104A2000020A38EE6A0A2D4880ED000A80ED02AADB
:104A300038EECB0A80ED030AC0ED019A90ED000A32
:104A400020EE000AD0ED020A90ED021A00EE810A73
:104A5000F0EE40CA01A8B0EE6C0AFFF77DFF1F48D8
:104A600090ED000ADDED010A80EE201A80ED001ABB
:104A700090ED020ADDED010A80EE201A80ED021AA7
:104A800090ED010A20EE000AD0ED030A90ED031A22
:104A900000EE810AF0EE40CA01A8B0EE6C0AFFF702
:104AA0005BFF0E4890ED010ADDED010A80EE201A51
:104AB00080ED011A074890ED030ADDED010A80EE52
:104AC000201A80ED031A03B000F00AB800BD000000
:104AD0009C5901202C590120000000005C59012044
:104AE000BDEC088BBDEC02CBFFF7F0BF70B52DED30
:104AF000028B04460D46164600200EE004EB8001B2
:104B0000D1ED000A04EB800191ED001AB0EE480AE5
:104B100000EE810AB0EE408A401CA842EEDB30462F
:104B2000B0EE480AFFF718FFBDEC028B70BD000025
:104B30002DED088B82B0FDF7EFFBFFF724FEFFF7AA
:104B4000FFF9FFF7D3F9FFF79FF9FFF741FAFFF7F6
:104B50005DFAFE48FFF792F8FCF72AFCFCF7FCFB35
:104B600001240025012600270020F94908609BE068
:104B7000F74800684FF4C87148434FF47A5190FBEE
:104B8000F1F201FB12084046FCF7C7FA9FEDF10B6A
:104B900053EC102BFCF74CFAFCF7FCFA09EE100A68
:104BA000EB4800684FF42F7148434FF47A5190FB63
:104BB000F1F201FB12084046FCF7AFFA9FEDE50B5E
:104BC00053EC102BFCF734FAFCF7E4FA09EE900AE8
:104BD000B0EE490AFBF77EFCF0EE408AB0EE690ABF
:104BE000FBF778FCB0EE408A00EE104AB8EEC00A3F
:104BF00060EE280A00EE105AB8EEC01AB0EE480A6D
:104C000041EE000A601900EE100AB8EEC00A80EE0C
:104C1000801ACF4800684FF4FA6190FBF1F201FB73
:104C20001200CE4901EB800080ED001A00EE106A00
:104C3000B8EEC00A60EE280A00EE107AB8EEC01A8C
:104C4000B0EE480A41EE000AF01900EE100AB8EE84
:104C5000C00A80EE801ABE480068401C4FF4FA611A
:104C600090FBF1F201FB1200BC4901EB800080EDEA
:104C7000001AB7480068401C4FF4FA6190FBF1F24B
:104C800001FB120058B98A00B5480168B348FCF727
:104C90004DFCB348006800F5FA50B1490860AC48D3
:104CA0000068801CAA490860A9480068B0F57A4FDE
:104CB000FFF65EAF0020A64908600DE09FEDA90A4F
:104CC000A648A349096800EB810080ED000AA048CE
:104CD0000068401C9E4908609D480068B0F5FA6F66
:104CE000ECDB00209E4908600EE001209E49086030
:104CF0004FF4FA529A4801689848FCF7DFFB00BF6E
:104D0000994800680028FBD195480068B0F57A3FC3
:104D1000EBDB964800684FF4FA4190FBF1F09349C1
:104D20000860934800684FF4FA4190FBF1F0904915
:104D3000086000208649086025E08549086800EB86
:104D4000D0714910A0EB410161B1884890ED000A93
:104D5000B8EEC00A87487E49096800EB810080ED03
:104D6000000A0BE0824890ED000AB8EEC00A8148C4
:104D70007749096800EB810080ED000A74480068FB
:104D8000401C7349086072480068B0F5FA6FD4DBC4
:104D9000794B02224FF47A717848FBF769FC784B23
:104DA00002224FF47A717748FBF762FC764B4FF49E
:104DB0007A7202217548FBF75BFC6E4B02224FF4BE
:104DC0007A717348FBF754FC724B02221146724809
:104DD000FBF74EFC714B02224FF47A717048FBF7DF
:104DE00047FC704B02224FF47A716F48FBF740FC8E
:104DF0006E4B022211466E48FBF73AFC6D4B0222C5
:104E000011466D48FBF734FC6C4B022211466C488E
:104E1000FBF72EFC6B4B012202216B48FBF728FCB1
:104E20006A4B012202216A48FBF722FC694B0122EE
:104E300002216948FBF71CFC684B012202216848EB
:104E4000FBF716FC674B012202216748FBF710FCB9
:104E5000664B02224FF47A716548FBF709FC654BFB
:104E600001224FF4FA616448FBF702FC634B012214
:104E70004FF4FA616248FBF7FBFB624B01224FF4EF
:104E8000FA616148FBF7F4FB604B0222114660486F
:104E9000FBF7EEFB5F4B022211465F48FBF7E8FB96
:104EA00000202F4908604FF4FA52084601682B4849
:104EB000FCF704FB3CE000BF584800680028FBD129
:104EC0000120564908604FF4FA52254801682348EA
:104ED000FCF7F4FA324A2E492848FBF773FF2B49B6
:104EE0002F48FBF7F3FF254A2D492848FBF760FEC2
:104EF0002B4A29492148FBF737FB00201449086059
:104F000012E026481249096800EB810090ED000A82
:104F100020480F49096800EB810080ED000A0C4829
:104F20000068401C0A490860094800680428E8DB5A
:104F30000B480068B0F57A3FBDDB17499FED380A92
:104F40000846FBF7D7FEFFF71DFD6BE0DC5A01209A
:104F500000000020C94BADB465BC393F6C01002096
:104F6000FC00002000000000F800002000010020EC
:104F700004010020AC9D0020EC3F00200400002034
:104F80002C5F00200C0000206C7E0020140000200C
:104F90001C0000209C590120D40000207C590120D5
:104FA000C40000208C590120CC0000202C59012085
:104FB0004C0000205C590120640000206C59012045
:104FC0006C000020740000207C0000208400002081
:104FD0008C000020940000209C000020A4000020F1
:104FE000AC000020B4000020BC000020ECBC00207D
:104FF000240000206CFB002034000020AC1A0120AB
:105000003C000020EC390120440000203C590120E4
:10501000540000204C5901205C000020DC000020DE
:105020000000FA46FE48D0ED000AB0EE600AFD48E6
:10503000FFF792FC1FED350AFA4880ED010AF848A7
:10504000D0ED030AB0EE600AF6480C30FFF784FC9E
:105050001FED3C0AF34880ED020AF349F348FBF7E1
:105060000BFBF349F348FBF707FBF04AF049EE4826
:10507000FBF79EFDFBF7B8FF642190FBF1F201FB0B
:10508000120000EE100AB8EEC00AEB4880ED000AEC
:10509000FBF7AAFF642190FBF1F201FB120000EE86
:1050A000100AB8EEC00AE44880ED010A01AA022104
:1050B000FFF71CFD9DED010AF7EE000A80EE801A55
:1050C000B0EE41AADD49B0EE4A0ADD48FBF712FE18
:1050D0001FED5C0ADB4880ED000A1FED5E0A80EDE3
:1050E000010A0020D8490860D4E00223D24AD549F9
:1050F000D648FBF785F901AA0221CF48FFF7F6FC55
:105100000198FCF71BF841EC1A0B9FEDD10B53EC07
:10511000102BFCF727F800D2C2E00223C64AC94987
:10512000CA48FBF74DF801AA0221C348FFF7DEFC8D
:105130000198FCF703F841EC1A0B9FEDC50B53ECFB
:10514000102BFCF70FF800D2AAE0C04890ED000A3F
:10515000BC4880ED000ABD4890ED010AB94880EDD9
:10516000010A1FED800AB94880ED000A1FED830A8D
:1051700080ED010A4FF4FA52B7480168B748FCF7CE
:105180009DF969E000BFB64800680028FBD1012006
:10519000B34908604FF4FA52AF480168AF48FCF7D2
:1051A0008DF9B04AB049B148FBF70CFEB04A9F49AF
:1051B000AC48FBF7FDFCAF4AA049AD48FBF7F8FC53
:1051C0004FF4FA63AC4AAD490846FBF763F84FF475
:1051D000FA63AB4AA849A948FBF75CF8A949A44877
:1051E000FBF774FE964AA849A648FBF7E1FC0222A9
:1051F000A6499FEDA70A9048FBF7B6F802228E4910
:10520000B0EE080A9148FBF7AFF80223A14A8A4999
:105210009E48FBF7F5F802239C4A8C499D48FAF713
:10522000CFFF00208849086012E098488649096845
:1052300000EB810090ED000A84488349096800EB87
:10524000810080ED000A80480068401C7E490860AB
:105250007D4800680428E8DB7F480068B0F57A3FA5
:1052600090DB01AA02218B48FFF740FC9DED010A6B
:10527000F7EE000A80EE801AB0EE41AA02227349CE
:10528000B0EE4A0A8348FBF76FF86F480068401C8D
:105290006D4908606C480068B0F57A7FFFF625AF6D
:1052A00000BF6A4890ED000A7B4880ED000A67481D
:1052B00090ED010A784880ED010A644890ED010AFA
:1052C000B1EE400A744880ED020A604890ED000A91
:1052D000714880ED030A714A54497148FBF768FC34
:1052E00001205F4908604FF4FA525B4801685B484F
:1052F000FCF7E4F800BF5A4800680028FBD14FF4DF
:10530000FA63684A014600906748FCF789FB002071
:105310004FF4FA63654A102100906348FCF780FB64
:10532000634890ED000A6348D0ED000A30EE600A51
:105330005F4880ED000A604890ED000A5F48D0EDBC
:10534000000A30EE600A5C4880ED000A05E1424840
:105350000068B0F57A3F02DB00203F49086000BFDB
:105360003F4800680028FBD101203D4908604FF408
:10537000FA52394801683948FCF7A0F841493B48DE
:10538000FBF7A4FD374A3F494448FBF711FC0020D6
:105390002D4908603EE04A482B49096800EB81002E
:1053A00090ED000A4348D0ED000A30EE600A444810
:1053B0002549096800EB810080ED000A3C4890ED2A
:1053C000000ADFED400A80EE801A3D481E49096858
:1053D00000EB810090ED000A21EE000A38481A49DE
:1053E000096800EB810080ED000A3548164909681C
:1053F00000EB810090ED000ABCEEC00A10EE100A2E
:105400002849114A126821F812000F480068401C10
:105410000D4908600C480068B0F57A7FBBDB53E0AB
:105420002C5901206C590120C40000206C00002080
:10543000CC00002064000020940000207C000020AC
:105440009C00002084000020000000207400002048
:10545000FCA9F1D24D62503FFC0000206C010020FD
:10546000E00000200C0000201C00002004000020B0
:105470002400002034000020AC1A01206CFB002026
:10548000EC3901201400002044000020A40000207A
:105490006F120338B40000203C5901205C0000204A
:1054A00054000020AC200020AC5901204C300020DA
:1054B000080100200C010020100100201401002030
:1054C0002C5F002000F07F454FF47A70234908607C
:1054D0003EE023482149096800EB810090ED000A75
:1054E0002048D0ED000A30EE600A1D481B490968CB
:1054F00000EB810080ED000A1B4890ED000A5FED93
:105500000F0A80EE801A16481449096800EB8100E2
:1055100090ED000A21EE000A11481049096800EBDD
:10552000810080ED000A0E480C49096800EB8100FB
:1055300090ED000ABCEEC00A10EE100A0B49074AB3
:10554000126821F8120005480068401C03490860F1
:1055500002480068B0F5FA6FBBDBF8E600000020F7
:105560002C5F002014010020100100204C3000208E
:105570000000000000000000010203040607080903
:105580000000000001020304A0860100400D03009A
:10559000801A060000350C0040420F0080841E0077
:1055A00000093D0000127A000024F40000366E016C
:1055B0000048E801006CDC0200000000920E493C4B
:1055C000B10AC93C2BC3163D2EFB483D752B7B3DD4
:1055D00004A9963D80B6AF3D36BDC83D2FBCE13D28
:1055E00073B2FA3D87CF093E8340163EB5AB223EEB
:1055F000A2102F3ECF6E3B3EC2C5473E0115543E22
:10560000135C603E7F9A6C3ECCCF783EC07D823E7C
:10561000938E883E229A8E3E32A0943E86A09A3E79
:10562000E59AA03E128FA63ED47CAC3EEF63B23E1C
:105630002A44B83E491DBE3E15EFC33E53B9C93E8C
:10564000CA7BCF3E4136D53E80E8DA3E4F92E03EFF
:105650007533E63EBBCBEB3EEA5AF13ECBE0F63E7D
:10566000275DFC3EE4E7003F3D9C033F824B063F45
:105670009BF5083F6B9A0B3FDA390E3FCDD3103FB5
:105680002A68133FD9F6153FC07F183FC6021B3F5B
:10569000D17F1D3FCBF61F3F9967223F25D2243F84
:1056A0005636273F1594293F4AEB2B3FDE3B2E3FD2
:1056B000BB85303FC9C8323FF304353F233A373FFB
:1056C0004268393F3B8F3B3FF9AE3D3F67C73F3FA5
:1056D00070D8413F01E2433F03E4453F65DE473F69
:1056E00012D1493FF8BB4B3F029F4D3F207A4F3FBD
:1056F0003D4D513F4918533F31DB543FE595563FEF
:105700005348583F6AF2593F1A945B3F532D5D3F0F
:1057100005BE5E3F2146603F97C5613F5A3C633FEF
:1057200059AA643F880F663FD86B673F3CBF683F0C
:10573000A7096A3F0C4B6B3F5E836C3F93B26D3F92
:105740009ED86E3F73F56F3F0809713F5213723F49
:105750004714733FDD0B743F0BFA743FC6DE753F91
:1057600007BA763FC58B773FF853783F9812793F59
:105770009DC7793F02737A3FBE147B3FCDAC7B3F20
:10578000283B7C3FC9BF7C3FAC3A7D3FCCAB7D3FE3
:1057900023137E3FB0707E3F6DC47E3F580E7F3F27
:1057A0006D4E7F3FAB847F3F0FB17F3F97D37F3FED
:1057B00043EC7F3F11FB7F3F0000803F11FB7F3FA9
:1057C00043EC7F3F97D37F3F0FB17F3FAB847F3F59
:1057D0006D4E7F3F580E7F3F6DC47E3FB0707E3F61
:1057E00023137E3FCCAB7D3FAC3A7D3FC9BF7C3FAE
:1057F000283B7C3FCDAC7B3FBE147B3F02737A3F9E
:105800009DC7793F9812793FF853783FC58B773F12
:1058100007BA763FC6DE753F0BFA743FDD0B743F67
:105820004714733F5213723F0809713F73F56F3F7E
:105830009ED86E3F93B26D3F5E836C3F0C4B6B3FC7
:10584000A7096A3F3CBF683FD86B673F880F663F38
:1058500059AA643F5A3C633F97C5613F2146603F68
:1058600005BE5E3F532D5D3F1A945B3F6AF2593F80
:105870005348583FE595563F31DB543F4918533F55
:105880003D4D513F207A4F3F029F4D3FF8BB4B3F6C
:1058900012D1493F65DE473F03E4453F01E2433F04
:1058A00070D8413F67C73F3FF9AE3D3F3B8F3B3F1D
:1058B0004268393F233A373FF304353FC9C8323F86
:1058C000BB85303FDE3B2E3F4AEB2B3F1594293FF3
:1058D0005636273F25D2243F9967223FCBF61F3FFC
:1058E000D17F1D3FC6021B3FC07F183FD9F6153F31
:1058F0002A68133FCDD3103FDA390E3F6B9A0B3F26
:105900009BF5083F824B063F3D9C033FE4E7003F89
:10591000275DFC3ECBE0F63EEA5AF13EBBCBEB3EC8
:105920007533E63E4F92E03E80E8DA3E4136D53EA2
:10593000CA7BCF3E53B9C93E15EFC33E491DBE3E9B
:105940002A44B83EEF63B23ED47CAC3E128FA63EF2
:10595000E59AA03E86A09A3E32A0943E229A8E3EC0
:10596000938E883EC07D823ECCCF783E7F9A6C3E3F
:10597000135C603E0115543EC2C5473ECF6E3B3EB0
:10598000A2102F3EB5AB223E8340163E87CF093E84
:1059900073B2FA3D2FBCE13D36BDC83D80B6AF3D88
:1059A00004A9963D752B7B3D2EFB483D2BC3163D30
:1059B000B10AC93C920E493C00000000920E49BC5D
:1059C000B10AC9BC2BC316BD2EFB48BD752B7BBDD0
:1059D00004A996BD80B6AFBD36BDC8BD2FBCE1BD24
:1059E00073B2FABD87CF09BE834016BEB5AB22BEE7
:1059F000A2102FBECF6E3BBEC2C547BE011554BE1E
:105A0000135C60BE7F9A6CBECCCF78BEC07D82BE78
:105A1000938E88BE229A8EBE32A094BE86A09ABE75
:105A2000E59AA0BE128FA6BED47CACBEEF63B2BE18
:105A30002A44B8BE491DBEBE15EFC3BE53B9C9BE88
:105A4000CA7BCFBE4136D5BE80E8DABE4F92E0BEFB
:105A50007533E6BEBBCBEBBEEA5AF1BECBE0F6BE79
:105A6000275DFCBEE4E700BF3D9C03BF824B06BF41
:105A70009BF508BF6B9A0BBFDA390EBFCDD310BFB1
:105A80002A6813BFD9F615BFC07F18BFC6021BBF57
:105A9000D17F1DBFCBF61FBF996722BF25D224BF80
:105AA000563627BF159429BF4AEB2BBFDE3B2EBFCE
:105AB000BB8530BFC9C832BFF30435BF233A37BFF7
:105AC000426839BF3B8F3BBFF9AE3DBF67C73FBFA1
:105AD00070D841BF01E243BF03E445BF65DE47BF65
