:020000040800F2
:10000000080101209D010008293D0008473B000828
:10001000253D0008BD150008B1450008000000009E
:10002000000000000000000000000000F94300088C
:100030009516000800000000653D0008FB4300081D
:10004000B7010008B7010008B7010008B7010008B0
:10005000B7010008B7010008B7010008B7010008A0
:10006000B7010008B7010008B7010008B701000890
:10007000B701000835160008451600085516000897
:10008000B7010008B7010008B7010008B701000870
:10009000B7010008B7010008B7010008971600086B
:1000A000B7010008B7010008B7010008B701000850
:1000B000B7010008B7010008B7010008B701000840
:1000C000B7010008B7010008B7010008B701000830
:1000D000B7010008B7010008B7010008B701000820
:1000E000B7010008B7010008B7010008B701000810
:1000F000B7010008B7010008B7010008B701000800
:10010000B7010008B7010008B7010008B7010008EF
:10011000B7010008B7010008CD440008B701000886
:10012000B7010008B7010008B7010008B7010008CF
:10013000B7010008B7010008B7010008B7010008BF
:10014000B7010008B7010008B7010008B7010008AF
:10015000B7010008B7010008B70100084D430008C7
:10016000B7010008B7010008B7010008B70100088F
:10017000B7010008B70100080000000000000000FF
:10018000B7010008B7010008DFF80CD001F09EF8B5
:1001900000480047A9470008080101200648804799
:1001A00006480047FEE7FEE7FEE7FEE7FEE7FEE75C
:1001B000FEE7FEE7FEE7FEE77D4400088901000850
:1001C0005FEA930C26D000BFD0ED003A91ED001A03
:1001D000D0ED010A91ED013A33EE811AD0ED022AF9
:1001E00070EE830A91ED022A90ED030AD1ED031A15
:1001F00082ED001AC2ED010A72EE820A30EE210A87
:100200001030C2ED020A82ED030A10311032BCF147
:10021000010CD9D113F0030308BF7047B3F1004FAD
:100220002CD2002BD8BF7047001F091F121F13F0DC
:10023000010F0AD090ED010AD1ED010A001D091D40
:1002400030EE200A82ED010A121D5B0808BF7047DC
:1002500090ED010AD1ED010A30EE200A82ED010A8B
:1002600090ED020AD1ED020A0830083130EE200A82
:1002700082ED020A08325B1EEAD17047B0EC010A37
:100280005B1EF1EC010A30EE200AA2EC010AF5D166
:10029000704700005FEA930C26D000BF90ED000A83
:1002A000D1ED000A90ED012A91ED011A60EE201ABD
:1002B00090ED020A22EE012AD1ED020A90ED031A16
:1002C000C2ED001AD1ED031A20EE200A82ED012AB8
:1002D00061EE210A82ED020A1030C2ED030A1031EC
:1002E0001032BCF1010CD9D113F0030308BF7047E1
:1002F000B3F1004F2CD2002BD8BF7047001F091F4D
:10030000121F13F0010F0AD090ED010AD1ED010A7E
:10031000001D091D20EE200A82ED010A121D5B0856
:1003200008BF704790ED010AD1ED010A20EE200AC6
:1003300082ED010A90ED020AD1ED020A083008317F
:1003400020EE200A82ED020A08325B1EEAD17047D5
:10035000B0EC010A5B1EF1EC010A20EE200AA2ECCF
:10036000010AF5D170470000930814D090ED032ADC
:10037000D0ED000A90ED011AD0ED021A22EE002A0B
:1003800060EE800A21EE001A61EE801AE1EC040AA8
:1003900010305B1EEAD112F0030208BF7047B2F1C1
:1003A000004F24D2002AD8BF7047001F091F12F047
:1003B000010F07D0D0ED010A001D60EE800AC1EDEB
:1003C000010A091D520808BF704700BFD0ED010A9D
:1003D00060EE800AC1ED010AD0ED020A083060EE3D
:1003E000800AC1ED020A0831521EEFD17047F0ECCD
:1003F000010A521E60EE800AE1EC010AF7D1704753
:100400005FEA930C26D000BFD0ED003A91ED001AC0
:10041000D0ED010A91ED013A33EEC11AD0ED022A76
:1004200070EEC30A91ED022A90ED030AD1ED031A92
:1004300082ED001AC2ED010A72EEC20A30EE610AC4
:100440001030C2ED020A82ED030A10311032BCF105
:10045000010CD9D113F0030308BF7047B3F1004F6B
:100460002CD2002BD8BF7047001F091F121F13F09A
:10047000010F0AD090ED010AD1ED010A001D091DFE
:1004800030EE600A82ED010A121D5B0808BF70475A
:1004900090ED010AD1ED010A30EE600A82ED010A09
:1004A00090ED020AD1ED020A0830083130EE600A00
:1004B00082ED020A08325B1EEAD17047B0EC010AF5
:1004C0005B1EF1EC010A30EE600AA2EC010AF5D1E4
:1004D00070470000B5EEC00AF1EE10FA07D2DFED6A
:1004E0001E0AB4EEE00AF1EE10FAA8BF7047DFED85
:1004F0001B0AB5EEC00A60EE200ABDEEE01A11EE4E
:10050000100AF1EE10FA38BF401E00EE100A15492D
:10051000F7EE001AB8EEC00A30EEC00ADFED100A9E
:1005200060EE200ABCEEE00A10EE100AC0F30800EC
:1005300000EE100A01EB8000B8EE400A90ED011ABF
:1005400070EEC00A90ED000A71EEE01A21EE800A0A
:1005500000EE810A70470000CD024CB483F9223EC0
:1005600000000044F051000870B405880E8844680B
:10057000D1F804C05368B54208D140884988884200
:1005800001BF11888D425188884203D070BC6FF042
:100590000200704705FB00F1880827D094ED001A8F
:1005A000DCED000A94ED010ADCED011A31EE201AAF
:1005B000D4ED020A70EE211A9CED020A83ED001AB6
:1005C000C3ED011A94ED031ADCED031A30EE800A34
:1005D000401E71EE210A83ED020A04F11004C3EDFE
:1005E000030A03F110030CF1100CD7D111F0030032
:1005F00030D0B0F1004F30D200282BDD211F1B1F5F
:10060000ACF1040210F0010F0AD091ED010AD2ED15
:10061000010A091D121D30EE200A83ED010A1B1D7F
:10062000400817D091ED010AD2ED010A401E30EECC
:10063000200A83ED010A91ED020AD2ED020A01F1CE
:10064000080102F1080230EE200A83ED020A03F1EC
:100650000803E7D170BC00207047B4EC010A401ECB
:10066000FCEC010A30EE200AA3EC010AF5D1F1E717
:1006700001804280436070472DE9F34F84B00498B5
:1006800040680090486801900498B0F800E0458800
:10069000DFEDFE0A00200290B0EE600AAE4506D102
:1006A00008884988884204BF7146864504D06FF0A7
:1006B000020006B000F078BA01985FEA010C18BF9A
:1006C000B7EE001A3DD000BFBEEB0C0117D0B1F160
:1006D000004F80F01F82002911DD021F11F0010F71
:1006E0001CBFC2ED010A121D4B1006D0C2ED010A5B
:1006F000C2ED020A08325B1EF8D100EB8100BCF1AA
:100700000102A0EC011A19D0B2F1004F80F008826A
:10071000002A13DD031F12F0010F1CBFC3ED010AF5
:100720001B1D511008D000BFC3ED010AC3ED020A22
:10073000491E03F10803F7D100EB8200BCF1010C64
:10074000C2D14FF000080395002D14BFB0EE602A0F
:10075000002000F0BF8100BF009908FB05F001EB0D
:10076000800B0199DBED002A01EB80000346F0EEDF
:10077000421AC64552D9AEEB0802ABEB850112F026
:10078000010F17D001EB850191ED000AB5EEC00A0B
:10079000F1EE10FA07DDB4EEE10AF1EE10FA09DD30
:1007A000F0EE401A06E0B1EE400AF4EEC01AF1EEA7
:1007B00010FAF5D3521031D001EB850C9CED000AF4
:1007C000B5EEC00AF1EE10FA05DDB4EEE10AF1EE85
:1007D00010FA09DD06E0B1EE400AF4EEC01AF1EEBF
:1007E00010FA01D2F0EE401A01EBC50191ED000ABA
:1007F000B5EEC00AF1EE10FA05DDB4EEE10AF1EE55
:1008000010FA09DD06E0B1EE400AF4EEC01AF1EE8E
:1008100010FA01D2F0EE401A521ECDD1F5EEC01AF8
:10082000F1EE10FA00F07381F5EEC02A0126F1EE28
:1008300010FA0099D4BFB1EE620AB0EE620AB4EECB
:10084000610AF1EE10FA1CBFAEEB0802B2F1010C26
:1008500047D005FB08F201EB820292ED001A00BFBF
:10086000B0EE410A05FB06F4B5EEC00A00EB8404C5
:10087000F1EE10FACCBFF0EE400AF1EE400AF4EED1
:10088000610AF1EE10FA28D1B5EB080C11D0BCF1D9
:10089000004F7DD2BCF1000F0BDD00BF92ED000ACE
:1008A000D1ED000ABCF1010CE2EC010AA1EC010A55
:1008B000F4D129000ED0B1F1004F6AD2002909DD30
:1008C00094ED000AD0ED000A491EE4EC010AA0EC08
:1008D000010AF5D1012002900BE0761CBCF1010C5D
:1008E000BED10298012804D0F5EEC02AF1EE10FA2C
:1008F0007ED09BED000AB5EB08009A4659460646A5
:1009000022D0B0F1004F74D200281DDD091F10F075
:10091000010F06D0F0EE400A80EEA01A81ED011A18
:10092000091D401010D000BFD1ED010A401E80EE1D
:10093000801A81ED011A91ED021AC1EE000AC1ED93
:10094000020A01F10801EFD1280026D0B0F1004FD2
:100950007ED2002821DDAAF1040110F0010F06D09B
:10096000D1ED010A80EE801A81ED011A091D4010B7
:1009700013D000BFD1ED010A401E80EE801A81ED38
:10098000011AD1ED020A80EE801A81ED021A01E00F
:10099000CBE0D6E001F10801ECD1DDE900124FF027
:1009A00000095FEA0E0773D0C14504BF01EB860161
:1009B00002EB850274D091ED000ADC465046331EEE
:1009C00035D01C46B6F1004F7ED2002C2FDD0B1F18
:1009D000ABF1040C16F0010F0FD0F0EE400ADCED85
:1009E000011AB0EE601A00EEE11A83ED011A01E07F
:1009F0008DE0B1E01B1D0CF1040C741015D000BF8C
:100A0000D3ED010A9CED011A40EE410AC3ED010A43
:100A1000D3ED020A9CED021A0CF1080C40EE410ADB
:100A2000C3ED020A0833641EEAD101EB86012B00F4
:100A300036D0B3F1004F72D2002B31DDA2F1040C9D
:100A4000AAF1040013F0010F0CD0DCED010A00E064
:100A50008BE090ED011A001D40EE410ACCED010A39
:100A60000CF1040C5C1019D0DCED010A90ED011AB8
:100A700040EE410ACCED010ADCED020A90ED021ACB
:100A8000083040EE410ACCED020A03E0000000000D
:100A90000DE005E0641E0CF1080CE5D102EB8302C9
:100AA00001EB88017F1E09F101097FF47DAF0098F9
:100AB00008F10108001D00900398401E03907FF488
:100AC0004BAE0299012900E058E004BF06B000F0E7
:100AD0006BB800BFB5EEC00AF1EE10FA7FF4E9ADD5
:100AE00004990EFB05F3002B4A684FF000010BD967
:100AF00002EB810C9CED000AB5EEC00AF1EE10FA93
:100B000002D1491C8B42F3D88B427FF4D2AD6FF0F7
:100B10000400CEE5E0EC010A491EFBD1EFE538E028
:100B2000E0EC010A521EFBD108E692ED000AD1ED7D
:100B3000000ABCF1010CE2EC010AA1EC010AF4D1BB
:100B4000B7E694ED000AD0ED000A491EE4EC010A74
:100B5000A0EC010AF5D1BDE6D1ED000A401E80EE01
:100B6000801AA1EC011AF7D1EEE6D3ED000A401E7F
:100B700080EE801AA3EC011AF7D10EE7BCEC011A43
:100B8000D1ED000A5B1E40EE410AE1EC010AF5D10D
:100B90004DE7B0EC011AD2ED000A5B1E40EE410AAF
:100BA000E2EC010AF5D17BE730BCBDE8C08F000064
:100BB0002DE9F04F82B04668536801930588478855
:100BC0004B88002000900888874201BFB2F800C01F
:100BD0006545528893421EBF6FF0020002B000F0DC
:100BE00085B89FED412A4FEA970EC7F3400B00BF2F
:100BF000DDE9000202EB800A4A6898464FF00009DE
:100C0000B0EE420AB4465FEA0E0025D092ED001A1B
:100C1000DCED001A02EB8302DCED010A01EE810A31
:100C200092ED001A02EB8302401ED2ED001A02EB95
:100C3000830200EE810A9CED021ADCED030A000437
:100C40000CF1100C000C01EE210A92ED001A02EBDF
:100C5000830200EE810AD9D117F0030026D0ACF14F
:100C60000404A2EB830210F0010F08D002EB830210
:100C7000D4ED010A92ED001A241D00EE810A5FEA0C
:100C80000B0013D002EB830CD4ED010A9CED001A8B
:100C900002EBC302401E00EE810AD4ED020A92ED7F
:100CA000001A04F1080400EE810AEBD109F10100F9
:100CB000AAEC010A1FFA80F9486800EB8902A8F142
:100CC00001001FFA80F8B8F1000F99D1009806EBE7
:100CD0008706184480B20090681E05042D0C87D149
:100CE00002B0002000F002B80000000030BCBDE8F7
:100CF000C08F000010B4B0F800C00C8843684A6888
:100D0000A44503D140884988884203D010BC6FF0C5
:100D1000020070470CFB00F188081DD093ED002AFB
:100D2000D3ED010AD3ED021A93ED031A22EE002A45
:100D300060EE800A61EE801A21EE001A82ED002A30
:100D4000C2ED010AC2ED021A82ED031A401E02F141
:100D5000100203F11003E1D111F0030026D0B0F12D
:100D6000004F26D2002821DD191F121F10F0010F9D
:100D700007D0D1ED010A091D60EE800AC2ED010A1B
:100D8000121D400812D000BFD1ED010A401E60EED6
:100D9000800AC2ED010AD1ED020A01F1080160EEFC
:100DA000800AC2ED020A02F10802EDD110BC002057
:100DB0007047F3EC010A401E60EE800AE2EC010A83
:100DC000F7D1F3E770B405880E884468D1F804C001
:100DD0005368B54208D140884988884201BF1188CC
:100DE0008D425188884203D070BC6FF0020070477A
:100DF00005FB00F1880827D094ED001ADCED000A0D
:100E000094ED010ADCED011A31EE601AD4ED020A0C
:100E100070EE611A9CED020A83ED001AC3ED011A0F
:100E200094ED031ADCED031A30EEC00A401E71EE99
:100E3000610A83ED020A04F11004C3ED030A03F111
:100E400010030CF1100CD7D111F0030030D0B0F129
:100E5000004F30D200282BDD211F1B1FACF10402F4
:100E600010F0010F0AD091ED010AD2ED010A091D1F
:100E7000121D30EE600A83ED010A1B1D400817D0D9
:100E800091ED010AD2ED010A401E30EE600A83EDB9
:100E9000010A91ED020AD2ED020A01F1080102F104
:100EA000080230EE600A83ED020A03F10803E7D17D
:100EB00070BC00207047B4EC010A401EFCEC010A33
:100EC00030EE600AA3EC010AF5D1F1E72DE9F04F0D
:100ED00002884768B0F802804888D1F8049082B050
:100EE0004FF0000A1646824207BF098888456FF016
:100EF000020002B018BF00F073B84FEA980B02EB83
:100F000042000190C8F34000CDF8000009EB8A01CF
:100F1000BBF1000F33D0019801EB820C01EB800490
:100F20003B46E64601EBC2054FEA0B0093ED000A93
:100F3000401E81ED000A93ED010A01EB02118CEDD8
:100F4000000A93ED020A0CEB021C85ED000A93EDFA
:100F5000030A05EB021584ED000A04EB021403F109
:100F60001003E3D10EEB820000EB820000EB820164
:100F7000ABF10100504307EB0B1701EB001118F028
:100F8000030C21D03B1FA1EB82011CF0010F06D006
:100F900093ED010A01EB82011B1D81ED000A00980F
:100FA00080B100BF93ED010A01EB820401EBC201A5
:100FB00084ED000A93ED020A401E81ED000A03F160
:100FC0000803EFD107EB8C070AF101001FFA80FA42
:100FD000701E0604360C99D102B0002000F000B853
:100FE00030BCBDE8C08FD2B201E000F8012B491E31
:100FF000FBD270470022F6E710B513460A460446B6
:101000001946FFF7F0FF204610BD2DE9FE4F81EA9B
:10101000030404F0004421F0004100944FF0000B61
:1010200023F0004350EA01045ED052EA03045BD08F
:10103000C3F30A54C1F30A552C44A4F2F3340194C7
:10104000A0FB0254C1F3130141F48011C3F3130355
:1010500043F4801301FB024400FB034E840A970A09
:1010600044EA815447EA8357A4FB076802958D0A36
:1010700005FB07854FEA932C04FB0C542705029DC2
:101080004FEA065847EA1637B5EB08056EEB070C32
:10109000870E920E47EA811742EA8312A7FB0201EC
:1010A000B6EB0B0164EB00042B0D43EA0C335E1826
:1010B00044EB1C50DA465146E7FB0201C5F313042A
:1010C0004FEA0B3343EA14534FEA0432019C43EADC
:1010D0000603A4F10C040294009CCDE900B400F0D6
:1010E000A7F803B000F003B800200146F9E730BCD0
:1010F000BDE8C08F0EB5C10F80EAE0700844CA0792
:10110000002140F233438DE80E000A460B4600F002
:101110008FF803B000BD00F0004230F000400AD06C
:10112000C10D01F56071C0F3160042EA0151C20819
:1011300040071143704700200146704730B5041E38
:1011400071F1000404DB4FF00044404264EB010104
:10115000141E73F1000405DB1C464FF0004352429D
:1011600063EB04038B4208BF824230BD01F00043B1
:1011700030B421F0004150EA010206D00A0DA2F578
:101180006072C1F31301002A02DC30BC00207047FA
:10119000440F44EAC104C100E01830BC00EBC25067
:1011A000AFF300800029A8BF7047401C490008BF6A
:1011B00020F00100704710B4B0FA80FC00FA0CF087
:1011C00050EA010404BF10BC704749B1CCF12004BF
:1011D00021FA04F411FA0CF118BF0121214308434C
:1011E000A3EB0C01CB1D4FEA00614FEA102042BF78
:1011F000002010BC704700EBC35010440029A4BF6E
:1012000010BC7047401C490008BF20F0010010BC12
:10121000704710B5141E73F1000408DA401C41F148
:10122000000192185B411A4301D120F0010010BD6A
:101230002DE9F04D92469B4611B1B1FA81F202E0E0
:10124000B0FA80F22032904600F052F804460F4681
:1012500040EA0A0041EA0B0153465A46084313D0BC
:10126000114653EA010019D0C8F14002504600F07F
:101270004EF805460E4650465946424600F038F8AC
:10128000084305D0012004E020463946BDE8F08D32
:101290000020054346EAE0762C4337430A9863056D
:1012A000E40AA0EB08000022FD0A44EA47540A3091
:1012B00002D500200146E9E7010510196941DDE981
:1012C000084500196941BDE8F04DA2E7064C074DFD
:1012D00006E0E06840F0010394E807009847103406
:1012E000AC42F6D3FEF754FFF4590008145A000834
:1012F000202A04DB203A00FA02F1002070479140D6
:10130000C2F1200320FA03F3194390407047202ACA
:1013100004DB203A21FA02F00021704721FA02F39F
:10132000D040C2F1200291400843194670470000A6
:1013300000B58FB04FF480700790602001900020BE
:10134000089009900A9006900C900D900E900C4811
:1013500002F0C4FF10B101200FB000BD41F288328D
:1013600001A9074801F050FA08B10120F4E7054946
:10137000034802F0F9FC08B10120EDE70020EBE79B
:101380003CFC002080A9030010B5224822490860D7
:10139000084601F08BFA08B1012010BD00F03EF8BC
:1013A00002201D49486004211B4881600021C16062
:1013B0004FF4000090FAA0F0B0FA80F0401E1649F9
:1013C0000861002114484161816101F0DBFB08B133
:1013D0000120E2E7104802F029FF08B10420DCE711
:1013E00001210D4802F0A2FE08B10120D5E701213C
:1013F000094802F0FDFD08B10120CEE701200649B1
:101400004860084601F0BEFB08B10120C5E7002096
:10141000C3E70000001000A03CFC002000B587B02E
:1014200000BF1A48006D40F48070184908650846EE
:10143000006D00F48070019000BF00BF0846006B93
:1014400040F4807008630846006B20F480700863E5
:1014500000BF0846C06C40F01000C8640846C06C6D
:1014600000F01000019000BF00BF4FF47C400290DC
:101470000220039000200490032005900A2006908B
:1014800002A9034800F0B4FE07B000BD00100240FE
:101490000010004870B58EB004460D4616464FF455
:1014A00080700690EB2000904FF4406007904FF45E
:1014B0000050039001954FF44040089000200490A4
:1014C000AA2002904FF040700990042005900A96DF
:1014D00000200B900C900D9041F28832694609482B
:1014E00001F092F910B101200EB070BD41F28832C6
:1014F0002146044801F050FC08B10120F4E7002027
:10150000F2E700003CFC00202DE9F0438FB081465B
:101510000D461646E8B2C0F58078B04500D9B04611
:101520002C46AF194FF480700790382001904FF48B
:10153000406008904FF400500490002009904FF054
:1015400040700A90002006900C900D900E9000BF05
:101550000294CDF82C80184802F0C0FE18B101208A
:101560000FB0BDE8F08341F2883201A9124801F0C2
:101570004BF908B10120F3E741F2883249460E48A1
:1015800001F088FC08B10120EAE741F288310A48FD
:1015900002F0EAFB08B10120E2E74444C14404F54B
:1015A0008070B84201D9381B01E04FF4807080464A
:1015B000BC42CDD30020D3E73CFC002000BFFEE7B7
:1015C00070B50446A56A284600F038F90120287154
:1015D00070BD70B50446A56A284600F064F8012085
:1015E000287170BD70B50546AC6A206940F00400F2
:1015F0002061204600F0B4F90120207170BD70B563
:101600000546AC6A206940F004002061204600F0E5
:101610004DF80120207170BD70B50446A56A2846BA
:1016200000F09CF970BD70B50446A56A284600F02C
:101630003BF870BD10B5024800F0C4FB10BD0000BF
:10164000ACFB002010B5024800F0BCFB10BD000050
:10165000F4FB002010B5024800F0B4FB10BD000000
:1016600080FC002030B590F8444004F01C050124B3
:10167000AC40056C6C60046863608468102C04D115
:101680000468A2600468E16003E00468A160046883
:10169000E26030BD704710B54FF4007000F09AFD65
:1016A00010BD00BFFEE770477047704770472DE9D7
:1016B000F04704460D4616464FF0000928690128F8
:1016C00000D100BF2868042800D100BF00BF6079A6
:1016D000012802D10220BDE8F0870120607100BF1F
:1016E000022020712868042855D1EEB900F082FE4E
:1016F00081460CE000F07EFEA0EB0900012806D92F
:10170000206940F00800206103202071E3E7206891
:10171000406B00F400400028ECD1012000F0A6FC52
:10172000A8692168086419E00CE000F063FEA0EBF2
:101730000900012806D9206940F008002061032033
:101740002071C8E72068406B00F000400028ECD111
:10175000012000F08BFCA869216848642068806C37
:1017600006F0100240F2FF319140884306F010026B
:10177000E96991400843216888642068C06C06F0DC
:101780001002FF219140884306F01002296A91401F
:1017900008432168C864286901280FD12068876B35
:1017A00006F010011F2088408743D5F8148006F00A
:1017B000100008FA00F00743206887632068C76BB1
:1017C00006F01001072088408743A968286808436D
:1017D000E96840EA010806F0100108FA01F0074341
:1017E0002068C7632068006806F010024FF480414B
:1017F00091408843216808602068076806F010015E
:1018000040F6FC7088408743D5F8048006F010014C
:1018100008FA01F00743206807602068006806F0B6
:101820001002C02191408843216808600120207186
:1018300000BF0020607100BF00BF4CE770B50546D7
:101840004FF4FA52374801683748FFF723FE35480E
:10185000006800F5FA503349086034493448FFF70E
:1018600035FB344A31493448FFF7A2F9002424E01B
:10187000324800EB840090ED000A3148D0ED000AB8
:1018800030EE600A2D4800EB840080ED000A2D4800
:10189000D0ED000A9FED2C1A81EE200A274800EBBC
:1018A0008400D0ED000A20EE200ABCEEC00A10EE43
:1018B000100A264921F81400641CB4F57A7FD7DB9E
:1018C0004FF47A742AE01D4800EB840090ED000A82
:1018D0001F48D0ED000A30EE600A184800EB840083
:1018E00080ED000A1B48D0ED000A9FED171A81EE2B
:1018F000200A124800EB8400D0ED000A20EE200AF6
:10190000BCEEC00A10EE100A4FF47A7194FBF1F2AB
:1019100001FB1241104A22F81100641CB4F5FA6F61
:10192000D1DB70BD04010020C8100020140000208D
:1019300004000020240000205C000020C88D00204E
:10194000140100201001002000F07F452801002034
:101950001C01002018010020F80800207047704783
:10196000704710B504462068006800F40050B0F5D8
:10197000005F19D12068406B00F40050B0F5005FA3
:1019800012D104202071206940F0010020614FF441
:101990000050216848632068006820F48050216866
:1019A00008602046FFF7DBFF2068006800F0005069
:1019B000B0F1005F19D12068406B00F00050B0F129
:1019C000005F12D104202071206940F002002061E4
:1019D0004FF00050216848632068006820F0805074
:1019E000216808602046FFF760FE10BD10B5044670
:1019F0000CB9012010BD207920B90020607120466B
:101A000000F008F8022020710020206101202071E0
:101A10000020EFE710B586B00446142101A8FFF7B7
:101A2000E9FA3849206888426AD100BF3648806D9B
:101A300040F00050344988650846806D00F0005041
:101A4000009000BF00BF00BF0846C06C40F001001E
:101A5000C8640846C06C00F00100009000BF00BFE1
:101A600030200190032002900020039001A94FF044
:101A7000904000F0BDFB25482549086006204860DD
:101A80001021234881600021C1608021016149004B
:101A90004161890081612021C1610021016200F062
:101AA00011FA08B1FFF7FDFD00BF1948A06084627C
:101AB00000BF1648143017490860052048601021FF
:101AC000144881600021C1608021016149004161A9
:101AD000890081612021C1610021016200F0F2F9D9
:101AE00008B1FFF7DEFD00BF0A48E060846200BF76
:101AF00000221146362000F0EEFC362000F0DEFC1D
:101B000006B010BD007400400010024030000240DA
:101B1000ACFB0020F4FB00202DE9F04704460D4605
:101B200017469946DDF820804FF0000A00BF607923
:101B3000012802D10220BDE8F0870120607100BFBA
:101B40000220207135BB3F48A168C8623E48A168A9
:101B500008633E48A16848632068006840F48050EC
:101B600021680860B8F1000F06D0B8F1040F07D063
:101B7000B8F1080F0CD107E0206800F1080A08E06E
:101B8000206800F10C0A04E0206800F1100A00E06F
:101B900000BF26E02E48E168C8622E48E16808636D
:101BA0002D48E16848632068006840F08050216853
:101BB0000860B8F1000F06D0B8F1040F07D0B8F1F3
:101BC000080F0CD107E0206800F1140A08E0206833
:101BD00000F1180A04E0206800F11C0A00E000BFD0
:101BE00000BF6DB92068006840F4005021680860AB
:101BF0004B4652463946A06800F0EAF906460CE02A
:101C00002068006840F00050216808604B4652464A
:101C10003946E06800F0DCF9064600BF002060713C
:101C200000BF4EB92068006805F010020121914004
:101C300008432168086003E0206940F00400206147
:101C4000304678E7C115000819160008E5150008A8
:101C5000D315000827160008FF15000801460022CA
:101C600009B9012070470868006820F00E000B6871
:101C700018600868006820F001000B68186091F88F
:101C8000440000F01C03012098400B6C58600120B8
:101C900081F8250000BF002081F8240000BF104615
:101CA000E0E770B50446002594F82500022803D02B
:101CB0000420E063012520E02068006820F00E0089
:101CC000216808602068006820F001002168086031
:101CD00094F8440000F01C0101208840216C486009
:101CE000012084F8250000BF002084F8240000BFF4
:101CF000A06B10B12046A16B8847284670BD00003C
:101D0000014609B9012070470868006820F0010009
:101D10000A681060294A086890420BD2284A08686D
:101D2000801A1422B0FBF2F080004864244808387E
:101D300008640AE0214A0868801A1422B0FBF2F015
:101D4000800048641D480838086400200A68106054
:101D500091F8440000F01C02012090400A6C506091
:101D6000174A083A086C90420DD1D0F8A80091F8B3
:101D7000442002F01C030F229A409043104A083A74
:101D8000C2F8A8000CE00D48A030006891F844208B
:101D900002F01C030F229A409043084AA0321060C0
:101DA0000020C862086348638863C86381F825001F
:101DB00000BF81F8240000BF00BFA4E70804024070
:101DC0000800024070B50446206C0568206806686B
:101DD00094F8440000F01C01042088402840E0B141
:101DE00006F00400C8B12068006800F0200028B99F
:101DF0002068006820F004002168086094F844001E
:101E000000F01C0104208840216C4860206B0028F1
:101E100056D02046216B884752E094F8440000F0E9
:101E20001C0102208840284018B306F0020000B3CD
:101E30002068006800F0200040B92068006820F0A9
:101E40000A0021680860012084F8250094F8440005
:101E500000F01C0102208840216C486000BF002077
:101E600084F8240000BFE06A50B32046E16A884746
:101E700026E094F8440000F01C0108208840284027
:101E8000F0B106F00800D8B12068006820F00E001C
:101E90002168086094F8440000F01C01012088408B
:101EA000216C48600120E06384F8250000BF002019
:101EB00084F8240000BF606B10B12046616B884736
:101EC00070BD000010B5014609B9012010BD3E4BA0
:101ED000086898420BD23D4B0868C01A1423B0FB27
:101EE000F3F0800048643948083808640AE0364B4B
:101EF0000868C01A1423B0FBF3F08000486432482D
:101F000008380864022081F825000868026847F64E
:101F1000F0708243D1E9020318430B6918434B69FF
:101F200018438B691843CB6918430B6A1843024363
:101F3000086802608868B0F5804F3AD0234B083BB0
:101F4000086C98421BD1D0F8A80091F8443003F0F7
:101F50001C040F23A34098431C4BA033186091F836
:101F6000443003F01C0348689840184B083BD3F8F2
:101F7000A8301843154B083BC3F8A80019E01248D5
:101F8000A030006891F8443003F01C040F23A340F4
:101F900098430D4BA033186091F8443003F01C03B4
:101FA00048689840084BA0331B681843064BA03381
:101FB00018600020C863012081F82500002081F806
:101FC000240000BF82E7000008040240080002402D
:101FD0002DE9F04104460D4616461F464FF0000815
:101FE00000BF94F82400012802D10220BDE8F0814E
:101FF000012084F8240000BF94F8250001282CD18A
:10200000022084F825000020E0632068006820F0AA
:102010000100216808603B46324629462046FFF70A
:1020200021FB206B30B12068006840F00E00216871
:1020300008600BE02068006820F004002168086058
:102040002068006840F00A00216808602068006885
:1020500040F001002168086006E000BF002084F81D
:10206000240000BF4FF002084046BFE770B50446A9
:1020700000F0C0F906462546681C00B16D1C00BF83
:1020800000F0B8F9801BA842FAD370BDF0B50B463A
:10209000002187E001258D4005EA0302002A7DD05A
:1020A00005684F000326BE4035430560CE0800F1A9
:1020B000200555F826504E07F70E0F26BE40B543B3
:1020C000CF0800F1200646F8275085684F00032608
:1020D000BE40B5438560466801258D40AE434660ED
:1020E000C5684F000326BE40B543C560C66A0125DA
:1020F0008D40AE43C6622E4D8E0855F826408D07A2
:102100002E0F0F25B5402C40B0F1904F01D1002586
:102110001EE0284DA84201D1012519E0264DA84214
:1021200001D1022514E0254DA84201D103250FE07D
:10213000234DA84201D104250AE0224DA84201D135
:10214000052505E0204DA84201D1062500E0072520
:102150008E07360FB540A54223D18D072E0F0F25D0
:1021600005FA06F4124D8E0855F82650A543104E78
:102170008F0846F82750154D2D689543134E35604E
:10218000351D2D689543361D3560351D2D689543E9
:10219000361D3560351D2D68954300E001E0361D84
:1021A0003560491C23FA01F5002D7FF473AFF0BDB3
:1021B000080001400004004800080048000C0048E6
:1021C00000100048001400480018004800040140B6
:1021D0007047000010B5044604480068204020B154
:1021E000024804602046FFF7F3FF10BD14040140CD
:1021F00078B503460022E5E0012696400D6805EA21
:102200000604002C7DD04D68022D02D04D68122DA1
:1022100013D1D60803F1200555F826005507EE0E18
:102220000F25B540A8435607F60E0D69B540284363
:10223000D60803F1200545F8260018685600032546
:10224000B540A8430D7905F003055600B540284375
:1022500018604D68012D08D04D68022D05D04D68DD
:10226000112D02D04D68122D13D198685600032508
:10227000B540A8435600CD68B540284398605868DB
:1022800001259540A8430D79C5F3001595402843D5
:1022900058600D7905F00305032D09D1D86A012591
:1022A0009540A8430D79C5F3C00595402843D862F1
:1022B000D86856000325B540A84356008D68B54040
:1022C0002843D8604D6805F08055B5F1805F78D11E
:1022D00000BF3F4D2D6E45F001053D4E356635463C
:1022E0002D6E05F00105009500BF00BF4FEAB63521
:1022F000960855F8260095072E0F0F25B540A843E0
:1023000000E05EE0B3F1904F01D100251EE0314DB9
:10231000AB4201D1012519E02F4DAB4201D102257D
:1023200014E02E4DAB4201D103250FE02C4DAB4202
:1023300001D104250AE02B4DAB4201D1052505E072
:10234000294DAB4201D1062500E007259607360F3F
:10235000B5402843254D960845F82600244D2868A9
:10236000A0434D6805F48035B5F5803F00D120438A
:102370001F4D28602D1D2868A0434D6805F40035C9
:10238000B5F5003F00D12043194D2D1D28602D1DAE
:102390002868A0434D6805F48015B5F5801F00D16D
:1023A0002043134D083528602D1D2868A0434D6833
:1023B00005F40015B5F5001F00D120430C4D0C3578
:1023C0002860521C0D68D540002D7FF415AF78BDF4
:1023D000001002400004004800080048000C0048BB
:1023E0000010004800140048001800480800014090
:1023F00000040140014800687047000020010020EF
:1024000002480068401C0149086070472001002014
:1024100010B50024032000F09FF8002000F008F819
:1024200008B1012401E000F01BF8204610BD0000B7
:1024300070B504460025094800684FF47A71B0FB76
:10244000F1F6304601F0E6F908B1012504E000227A
:102450002146501E00F03FF8284670BD24010020A0
:1024600008B500BF0D48006E40F001000B4908663A
:102470000846006E00F00100009000BF00BF00BFE2
:102480000846806D40F0805088650846806D00F0F9
:102490008050009000BF00BF08BD00000010024047
:1024A00000BF00F01F0201219140034A430942F896
:1024B000231000BF7047000080E100E000BF00F083
:1024C0001F02012191404209920002F1E022C2F86C
:1024D000001100BF70472DE9F05F80460D4616469B
:1024E000002701F023FC074639462A46334601F00F
:1024F0000700C0F1070ABAF1040F02D94FF0040A2D
:1025000001E0C0F1070AD14600F1040ABAF1070F51
:1025100002D24FF0000A01E0A0F1030AD4464FF0C6
:10252000010A0AFA09FAAAF1010A0AEA020A0AFAEF
:102530000CFA4FF0010B0BFA0CFBABF1010B0BEAA1
:10254000030B4AEA0B042146404601F0F7FB00F07A
:1025500000B830BCBDE8C09F00BF00F00702064BCA
:1025600019684FF6FF031940044B0B4343EA02215D
:10257000014B196000BF70470CED00E00000FA0548
:102580000246B2F5007F2AD11D48006800F4C06001
:10259000B0F5007F32D01A48006820F4C06040F4E3
:1025A0000070174B18601748006832235843164BC9
:1025B000B0FBF3F0411C00E0491E1148406900F4F3
:1025C0008060B0F5806F01D10029F5D10C484069D9
:1025D00000F48060B0F5806F10D103207047084888
:1025E000006800F4C060B0F5806F07D00448006850
:1025F00020F4C06040F48060014B18600020EDE7DB
:10260000007000402401002040420F000248006892
:1026100000F4C0607047000000700040F8B5044648
:102620000025FFF7E7FE064694F8390000F00200A7
:1026300000283ED000BF002084F8380000BF20688A
:10264000006800F0040070B12068006820F0040009
:1026500021680860606BFFF701FB05461DB1E06B68
:1026600040F00400E0632068006840F00200216848
:102670000860206C3346012202210090204601F0C0
:1026800007FE05465DB902202168C860206C33460C
:10269000002220210090204601F0FAFD054645B9B0
:1026A0002068406920F0406021684861012084F87A
:1026B00039002846F8BD704770B50446002594F8E7
:1026C000390000F0020028B300BF002084F8380071
:1026D00000BF082084F839002068006820F4F81052
:1026E000216808602068006800F0040098B1206844
:1026F000006820F00400216808600F48616B88635F
:10270000606BFFF7CEFA28B1012084F8390020462B
:10271000FFF7D1FF0EE002202168C8602068006842
:1027200040F40030216808602068006840F0020032
:1027300021680860284670BDAD3F00082DE9F843C8
:1027400004460E4615469846FFF754FE8146B0698A
:1027500000B100BFF06900B100BF306A00B100BF36
:1027600000BF94F83800012802D10220BDE8F883A8
:10277000012084F8380000BF94F8390001283AD1CC
:102780000020E063422084F839004B4600222021DB
:102790002046CDF8008001F07BFD074657BB286836
:1027A00021688862686821684862A8682168C862F0
:1027B0002068006820F44000296941F48001084342
:1027C00021680860E868B0624FF000623146204638
:1027D00001F0F8FA4B46012208212046CDF800808E
:1027E00001F056FD07462FB908202168C860012076
:1027F00084F8390000E0022700BF002084F8380088
:1028000000BF3846B2E770472DE9F84304460D464D
:102810001746FFF7EFFD8046A86900B100BFE869E1
:1028200000B100BF286A00B100BF00BF94F83800B3
:10283000012802D10220BDE8F883012084F8380085
:1028400000BF94F83900012828D10020E06302205D
:1028500084F839004346002220212046009701F0E9
:1028600017FD0646DEB900222946204601F0AAFAE5
:10287000686A78B94346012202212046009701F098
:1028800007FD06465EB902202168C860012084F871
:10289000390004E0012084F8390000E0022600BF7E
:1028A000002084F8380000BF3046C4E710B5044665
:1028B0000CB9012010BD00BF94F83800012801D1E7
:1028C0000220F7E7012084F8380000BF2068006884
:1028D00020F0010021680860204600F0B7F90020D0
:1028E000E06384F8390000BF84F8380000BF00BFFF
:1028F000E0E77047704700002DE9F041044620688A
:1029000086682068076806F00400002848D007F4AD
:102910008020002844D0206800F1200594F8390078
:1029200012281AD112E0606A48B1E0690078287074
:10293000E069401CE061606A401E606206E0206859
:10294000006820F480202168086005E02068806825
:10295000C0F380000028E6D11EE094F83900222858
:102960001AD112E0206B48B12878A16A0870A06AD9
:10297000401CA062206B401E206306E020680068B7
:1029800020F480202168086005E020688068C0F39A
:1029900080000028E6D100BF2046FFF7ABFFEDE046
:1029A00006F00200002872D007F4003000286ED034
:1029B00002202168C8602068006820F4E0202168B7
:1029C000086094F8390012281CD12068006800F0D3
:1029D000040068B12068006820F0040021680860E5
:1029E000606B0068006820F00100616B0968086096
:1029F0002046FFF761FE012084F83900204600F0F0
:102A0000B7FABBE094F83900222835D12068006875
:102A100000F0040070B12068006820F00400216814
:102A20000860606B0068006820F00100616B096855
:102A3000086017E0206800F120050CE0206B48B129
:102A40002878A16A0870A06A401CA062206B401E12
:102A5000206300E005E02068806800F4F85000285A
:102A6000ECD100BF2046FFF727FE012084F8390093
:102A7000204600F00AFA81E094F83900022807D1D4
:102A8000012084F839002046FFF7BDFE76E016E00D
:102A900094F83900082871D12068406920F040601E
:102AA00021684861012084F83900E06B18B920469C
:102AB000FFF701FE62E02046FFF71BFF5EE006F035
:102AC0000800B8B107F40020A0B108202168C86050
:102AD0002068006800F4800040B12068006820F49D
:102AE000102021680860012084F83900204600F099
:102AF000CFF943E006F0010098B307F4803080B3CB
:102B000001202168C8602068006820F470202168D6
:102B10000860E06B40F00200E0632068006800F0AD
:102B20000400B8B12068006820F004002168086043
:102B30001348616B8863606BFFF7B3F8F0B1E06B2B
:102B400040F00400E063012084F839002046FFF7DC
:102B5000D0FE13E0012084F839002046FFF7C9FEBB
:102B60000CE0FFE706F0100040B107F4801028B138
:102B700010202168C860204600F08BF9BDE8F08184
:102B8000AD3F0008F8B50446FFF734FC06460CB923
:102B90000120F8BD00BF94F83800012801D10220BF
:102BA000F7E7012084F8380000BF94F8390050B9E5
:102BB000002084F83800204600F06CF841F288319B
:102BC000204600F063F92068006820F47061A06876
:102BD000401E41EA002021680860206C3346002234
:102BE00020210090204601F053FB054615BB2179BA
:102BF000E06840EA016021680968124A1140084310
:102C000021680860208A616941EA0040A16908439F
:102C1000216849680C4A11400843216848602068CF
:102C2000006840F00100216808600020E063012096
:102C300084F8390000BF002084F8380000BF28461F
:102C4000A7E70000EFFFFF00FEF8E0FF10B5044625
:102C50000C492068884214D10B48006D20F4807024
:102C60000949086503210948FFF710FA4FF440614C
:102C70000748FFF70BFA606BFFF742F84720FFF7B2
:102C80000FFC10BD001000A000100240000400481E
:102C90000010004810B586B00446142101A8FEF7C4
:102CA000A9F937492068884268D100BF3548006DCE
:102CB00040F48070334908650846006D00F4807068
:102CC000009000BF00BF00BF0846C06C40F002008B
:102CD000C8640846C06C00F00200009000BF00BF4E
:102CE00000BF0846C06C40F01000C8640846C06CC5
:102CF00000F01000009000BF00BF032001900220F0
:102D0000029000200390032004900A20059001A95E
:102D10001D48FFF76DFA4FF44060019002200290C9
:102D200000200390032004900A20059001A9174871
:102D3000FFF75EFA16481749086005204860002131
:102D400014488160C160802101618900416189006E
:102D500081610021C1610162FFF7B4F808B1FEF79B
:102D6000A0FC00BF0B486063846200BF00221146D4
:102D70004720FFF7B0FB4720FFF7A0FB06B010BDD0
:102D8000001000A00010024000040048001000489D
:102D90005800024080FC00202DE9F84F04460E4602
:102DA00017460025FFF726FB80462068D0F81890CC
:102DB000206800F1200A00BF94F83800012802D1F1
:102DC000022000F05FB8012084F8380000BF94F8BA
:102DD000390001284ED10020E063002E44D022208B
:102DE00084F8390020680069401C2063206800696D
:102DF000401CE062A6622068406920F0406040F01C
:102E00008060216848612068C0F8189013E043464C
:102E1000012206212046009701F03AFA054605B145
:102E20000CE09AF80000A16A0870A06A401CA06239
:102E3000206B401E2063206B0028E8D100BF7DB9C5
:102E40004346012202212046009701F021FA05465F
:102E500035B902202168C8602046FFF7DFFB054630
:102E6000012084F8390006E0E06B40F00800E063E0
:102E7000012500E0022500BF002084F8380000BFD3
:102E800028469EE718BCBDE8E08F70470164704794
:102E9000704770472DE9F84304460E461746002553
:102EA000FFF7A8FA8046206800F1200900BF94F8D7
:102EB0003800012802D10220BDE8F883012084F8FF
:102EC000380000BF94F83900012849D10020E063A0
:102ED000002E3FD0122084F8390020680069401C81
:102EE000606220680069401C2062E66120684069D9
:102EF00020F040602168486113E04346012204212C
:102F00002046009701F0C4F9054605B10CE0E069E0
:102F1000007889F80000E069401CE061606A401EAA
:102F20006062606A0028E8D100BF7DB94346012293
:102F300002212046009701F0ABF9054635B9022081
:102F40002168C8602046FFF769FB0546012084F828
:102F5000390006E0E06B40F00800E063012500E086
:102F6000022500BF002084F8380000BF2846A3E7F0
:102F7000704700002DE9F04104460D4614B90120C8
:102F8000BDE8F0815548006800F00700A8420ED265
:102F90005248006820F0070028435049086008465E
:102FA000006800F00700A84201D00120E8E720787F
:102FB00000F00100002840D06068032806D148488E
:102FC000006800F00070D8B90120D9E760680228D5
:102FD00006D14348006800F4003088B90120CFE7EB
:102FE000606830B93E48006800F0020040B9012036
:102FF000C6E73B48006800F4806008B90120BFE7DD
:103000003748806820F003006168084334498860CD
:10301000FFF7F0F9064608E0FFF7ECF9801B41F2F4
:103020008831884201D90320AAE72D48806800F042
:103030000C006168B0EB810FEED1207800F0020047
:10304000022807D12648806820F0F000A1680843D4
:10305000234988602148006800F00700A8420ED983
:103060001E48006820F0070028431C4908600846F5
:10307000006800F00700A84201D0012080E7207816
:1030800000F00400042807D11548806820F4E060AF
:10309000E168084312498860207800F00800082899
:1030A00008D10F48806820F46050216940EAC100CF
:1030B0000B49886000F01AF809498968C1F30311C7
:1030C000084A515C01F01F01C84007490860002010
:1030D000FFF7AEF90746384652E7000000200240ED
:1030E00000100240A8510008240100202DE9F04101
:1030F00000240020DFF800C1DCF808C00CF00C014F
:10310000DFF8F4C0DCF80CC00CF0030719B10C298F
:103110001ED1012F1CD1DFF8E0C0DCF800C00CF09C
:10312000080CBCF1000F06D1DFF8CCC0DCF894C06D
:10313000CCF3032405E0DFF8C0C0DCF800C0CCF31A
:103140000314DFF8B8C05CF8244041B9204606E01B
:10315000042901D12A4802E0082900D129480C2974
:1031600047D1DFF894C0DCF80CC00CF00305DFF8A1
:1031700088C0DCF80CC0CCF3021C0CF10103012D5B
:103180001FD0022D02D0032D1AD10CE0DFF870C041
:10319000BCFBF3FCDFF86080D8F80C80C8F306288D
:1031A0000CFB08F218E0DFF85CC0BCFBF3FCDFF8B6
:1031B0004880D8F80C80C8F306280CFB08F20BE016
:1031C00000BFB4FBF3FCDFF83080D8F80C80C8F304
:1031D00006280CFB08F200BF00BFDFF81CC0DCF8BB
:1031E0000CC0CCF3416C0CF1010C4FEA4C06B2FB65
:1031F000F6F0BDE8F081000000100240C051000868
:103200000024F40000127A002DE9F843044614B9B2
:103210000120BDE8F883F848806800F00C06F64805
:10322000C06800F00307207800F01000102875D166
:103230001EB10C2E74D1012F72D1EF48006800F03E
:10324000020018B1A06908B90120E2E7EA48216A42
:10325000006800F0080020B1E748006800F0F000C6
:1032600005E0E5489430006800F470600009814290
:103270001FD9206A01F072F808B10120C9E700BF28
:10328000DD48006840F00800DB4908600846006837
:1032900020F0F000216A0843D749086000BF0846C3
:1032A000406820F47F40E16940EA0120D24948604B
:1032B0001EE000BFD048006840F00800CE4908601A
:1032C0000846006820F0F000216A0843CA490860F7
:1032D00000BF0846406820F47F40E16940EA0120D1
:1032E000C5494860206A01F039F808B1012090E72B
:1032F000FFF7FCFEC0498968C1F30311BF4A515C66
:1033000001F01F01C840BE4908600020FFF790F897
:103310008046B8F1000F4ED040467AE74BE0FFE719
:10332000A06980B3B448006840F00100B249086069
:10333000FFF760F8054606E0FFF75CF8401B02283F
:1033400001D9032065E7AC48006800F002000028BE
:10335000F2D000BFA848006840F00800A649086005
:103360000846006820F0F000216A0843A24908607E
:1033700000BF0846406820F47F40E16940EA012030
:103380009D49486017E0FFE79B48006820F0010076
:1033900099490860FFF72EF8054606E0FFF72AF87E
:1033A000401B022801D9032033E79348006800F04E
:1033B00002000028F2D1207800F0010000285CD043
:1033C000082E03D00C2E0AD1032F08D18A4800689A
:1033D00000F4003088B3606878BB012019E700BFB3
:1033E0006068B0F5803F06D18348006840F48030C3
:1033F000814908601AE06068B0F5A02F0BD17E48C3
:10340000006840F480207C4908600846006840F469
:10341000803008600AE07848006820F480307649FF
:1034200008600846006820F48020086000BF6068DB
:1034300090B1FEF7DFFF054607E01EE0FEF7DAFF7A
:10344000401B642801D90320E3E66B48006800F4C0
:1034500000300028F2D010E0FEF7CCFF054606E071
:10346000FEF7C8FF401B642801D90320D1E662485B
:10347000006800F400300028F2D1207800F002004B
:10348000022852D1042E03D00C2E14D1022F12D1B7
:103490005948006800F4806018B1E06808B901205C
:1034A000B7E65548406820F0F850217C40EA0160BA
:1034B0005149486039E0E06800B34F48006840F483
:1034C00080704D490860FEF795FF054606E0FEF75F
:1034D00091FF401B022801D903209AE64648006864
:1034E00000F480600028F2D04348406820F0F85093
:1034F000217C40EA01604049486016E03E4800688F
:1035000020F480703C490860FEF774FF054606E031
:10351000FEF770FF401B022801D9032079E63648E8
:10352000006800F480600028F2D1207800F00800E4
:10353000082836D16069D0B12F489430006840F037
:1035400001002D49C1F89400FEF754FF054606E03E
:10355000FEF750FF401B022801D9032059E62648F8
:103560009430006800F002000028F1D019E02248F1
:103570009430006820F001001F49C1F89400FEF764
:1035800039FF054606E0FEF735FF401B022801D94A
:1035900003203EE618489430006800F0020000283E
:1035A000F1D1207800F00400042870D14FF0000918
:1035B0001148806D00F0805078B900BF0E48806DD2
:1035C00040F080500C4988650846806D00F08050BE
:1035D000009000BF00BF4FF001090A48006800F4E6
:1035E0008070F0B90748006840F4807005490860B1
:1035F000FEF700FF05460EE000100240A85100084B
:103600002401002000700040FEF7F4FE401B022859
:1036100001D90320FDE57C48006800F48070002893
:10362000F2D000BFA068012808D17848006840F0B7
:10363000010076499039C1F8900021E0A068052882
:103640000FD17248006840F0040070499039C1F809
:1036500090000846D0F8900040F00100C1F89000BA
:103660000EE06A48006820F0010068499039C1F80E
:1036700090000846D0F8900020F00400C1F89000B7
:1036800000BFA068A0B1FEF7B5FE054609E02EE038
:10369000FEF7B0FE401B41F28831884201D9032079
:1036A000B7E55A48006800F002000028F0D012E0A8
:1036B000FEF7A0FE054608E0FEF79CFE401B41F227
:1036C0008831884201D90320A3E55048006800F002
:1036D00002000028F0D1B9F1010F07D14B48903812
:1036E000806D20F0805049499039886500BFA06AFC
:1036F000F0B30C2E74D0A06A022853D143489038FE
:10370000006820F08070414990390860FEF772FE31
:10371000054606E0FEF76EFE401B022801D9032095
:1037200077E53A489038006800F000700028F1D141
:10373000206B401E0101606B41EA0021A06B000973
:1037400041EA4040E16A0843A18F0122C2EB5101E6
:1037500040EA41514020005DC2EB500041EA406028
:103760002A499039C8600846006840F0807000E03F
:1037700048E008600846C06840F08070C860FEF706
:1037800039FE054606E0FEF735FE401B022801D94A
:1037900003203EE51D489038006800F000700028C6
:1037A000F1D02FE019489038006820F08070174958
:1037B000903908600846006800F0205020B908469B
:1037C000C06820F00300C86010489038C0681049F5
:1037D00008400E499039C860FEF70CFE054607E028
:1037E0000EE0FEF707FE401B022801D9032010E57A
:1037F00006489038006800F000700028F1D101E020
:10380000012006E5002004E5007000409010024011
:10381000FFFFEEFE70B504462546681EB0F1807FBE
:1038200001D301200FE0681E4FF0E02148610F2115
:103830004FF0FF3000F082FA00204FF0E021886165
:1038400007200861002070BD704770477047000076
:1038500030B502460B4600BF92F83C00012801D16A
:10386000022030BD012082F83C0000BF022082F817
:103870003D001068416810688468114D1068A842C6
:1038800003D0104D1068A84203D121F4700158688C
:10389000014321F070011868014324F08004986806
:1038A00004431068416010688460012082F83D0084
:1038B00000BF002082F83C0000BF00BFD1E700003D
:1038C000002C01400034014010B504460CB9012021
:1038D00010BD94F83D0028B9002084F83C00204633
:1038E00000F00CF8022084F83D00211D206800F053
:1038F000F9FD012084F83D000020E9E738B50446D1
:103900000D492068884215D100BF0C48806D40F0F9
:1039100010000A4988650846806D00F0100000908C
:1039200000BF00BF002211463620FEF7D4FD36202E
:10393000FEF7C4FD38BD000000100040001002403A
:103940000146022081F83D00086880680C4A10405A
:10395000062805D0086880681040B0F5803F01D186
:10396000012000E0002028B90868006840F001004C
:103970000A681060012081F83D00002070470000B7
:1039800007000100704710B5044620680069C0F3C5
:103990004000D8B12068C068C0F34000B0B16FF0FB
:1039A000020021680861012020772068806900F00A
:1039B000030018B12046FFF7E5FF05E0204600F0C0
:1039C000BEF8204600F0BCF800202077206800698F
:1039D000C0F38000D8B12068C068C0F38000B0B1E7
:1039E0006FF0040021680861022020772068806958
:1039F00000F4407018B12046FFF7C4FF05E02046F0
:103A000000F09DF8204600F09BF800202077206809
:103A10000069C0F3C000D8B12068C068C0F3C0001E
:103A2000B0B16FF008002168086104202077206899
:103A3000C06900F0030018B12046FFF7A3FF05E0BE
:103A4000204600F07CF8204600F07AF8002020772D
:103A500020680069C0F30010D8B12068C068C0F3C6
:103A60000010B0B16FF010002168086108202077C5
:103A70002068C06900F4407018B12046FFF782FF4B
:103A800005E0204600F05BF8204600F059F80020E1
:103A900020772068006900F0010058B12068C068F4
:103AA00000F0010030B16FF001002168086120468C
:103AB00000F047F820680069C0F3C01058B12068D2
:103AC000C068C0F3C01030B16FF080002168086199
:103AD0002046FFF7BAFE20680069C0F3002058B105
:103AE0002068C068C0F3C01030B16FF480702168E6
:103AF00008612046FFF7A8FE20680069C0F3801027
:103B000058B12068C068C0F3801030B16FF0400039
:103B100021680861204600F015F820680069C0F3AC
:103B2000401058B12068C068C0F3401030B16FF049
:103B30002000216808612046FFF788FE10BD70470D
:103B400070477047704700BF00BF00BFFEE700002E
:103B500000B589B024216846FDF74CFA1348144992
:103B600008600846FDF742FF08B1FDF79AFD002006
:103B7000009004200190002002900120039000207A
:103B80000490002269460A48FDF791FD08B1FDF74F
:103B900088FD01200390102269460548FDF787FD46
:103BA00008B1FDF77EFD09B000BD000000740040C3
:103BB00098FB002008B500BF1248806C40F001005F
:103BC000104988640846806C00F00100009000BF36
:103BD00000BF002211460D20FEF77DFC0D20FEF7F0
:103BE0006DFC002211460E20FEF775FC0E20FEF73C
:103BF00065FC002211460F20FEF76DFC0F20FEF73A
:103C00005DFC08BD0010024000B587B0142102A879
:103C1000FDF7F0F900BF1D48C06C40F001001B49E2
:103C2000C8640846C06C00F00100019000BF00BFEE
:103C300000BF0846C06C40F00200C8640846C06C73
:103C400000F00200019000BF00BF00BF0846C06C3A
:103C500040F01000C8640846C06C00F010000190ED
:103C600000BF00BF4815029009480390002004904F
:103C700002A90848FEF7BCFA002211461720FEF7F9
:103C80002AFC1720FEF71AFC07B000BD0010024006
:103C9000000011100010004810B50C48FEF706FE99
:103CA0000B480A49086000204860022107488160EB
:103CB0000021C16016210161002141618161FEF78F
:103CC00061FF08B1FDF7EDFC10BD00003CFC0020D9
:103CD000001000A00EB500200090019002900F4847
:103CE0000F4908600020486000210D48816041F2C2
:103CF0008831C16000218161FFF7E6FD08B1FDF761
:103D0000D0FC202000900020029069460448FFF774
:103D10009FFD08B1FDF7C5FC0EBD0000001000407E
:103D2000C8FC002000BFFEE77047000002480068A2
:103D3000C0F30220704700000CED00E010B5002831
:103D400007DA0A07140E054A00F00F031B1FD454AC
:103D500003E00A07130E024A135410BD18ED00E0E9
:103D600000E400E07047000030B595B005460C4611
:103D70004FF480700D900520079000200E900F905A
:103D80004FF08070109000200C90129013901490BF
:103D90000190012002900020059001200490102045
:103DA000039080040690234601AA07A90448FEF761
:103DB000C5FC10B1012015B030BD0020FBE70000AC
:103DC0003CFC002010B54B6A33B1B2F1406F03D018
:103DD0008B6A5B1E046823618B69002B76D00B6AAB
:103DE000E3B38B680468E361CB69FBB1D1E90B34C1
:103DF00023434C6B23434C6A23438C8A43EA84431A
:103E00000C6923430C6A2343CC682343CC692343C6
:103E10008C6923430C682343134304686361B2F144
:103E2000406F02D04B680468A361BEE0D1E90B3457
:103E300023434C6B23434C6A23438C8A43EA8443D9
:103E40000C6923430C6A2343CC6923438C692343C5
:103E50000C682343134304686361A6E0FFE7CB6962
:103E6000EBB1D1E90B3423434C6B23434C6A23431E
:103E70008C8A43EA84430C6A2343CC682343CC698D
:103E800023438C6923430C68234313430468636111
:103E9000B2F1406FC9D04B680468A36185E0D1E9F5
:103EA0000B3423434C6B23434C6A23438C8A43EAF1
:103EB00084430C6A2343CC6923438C6923430C68F5
:103EC00023431343046863616FE0FFE70B6AC3B3E6
:103ED0008B680468E361CB69EBB1D1E90B34234310
:103EE0004C6B23434C6A23438C8A43EA84430C691A
:103EF00023430C6A2343CC682343CC6923438C6956
:103F00002343134304686361B2F1406F4DD04B68A3
:103F10000468A36149E0D1E90B3423434C6B23438C
:103F20004C6A23438C8A43EA84430C6923430C6A1A
:103F30002343CC6923438C6923431343046863619F
:103F400033E0FFE7CB69DBB1D1E90B3423434C6BA2
:103F500023434C6A23438C8A43EA84430C6A2343F9
:103F6000CC682343CC6923438C69234313430468FF
:103F70006361B2F1406F18D04B680468A36114E02C
:103F80004B6A93B1D1E90B3423434C6B23434C6A06
:103F900023438C8A43EA84430C6A2343CC6923433A
:103FA0008C69234313430468636110BD70B50546F3
:103FB000AC6A00202063606294F8390008280FD1B1
:103FC00002202168C8602068006840F40030216841
:103FD00008602068006840F002002168086005E081
:103FE000012084F839002046FEF783FC70BD0000F4
:103FF00030B58FB005460C464FF480700790052011
:1040000001900020089009904FF080700A900020E5
:10401000069001200B9000200C900D900E9041F224
:10402000883201A94048FEF7EFFB10B101200FB024
:1040300030BD41F2883269463B48FEF7ADFE08B11B
:104040000120F4E71520019002200B9041F2883204
:1040500001A93548FEF7D8FB08B10120E7E741F296
:1040600088320DF101013048FEF796FE08B10120BB
:10407000DDE72D4800F032F908B10120D7E7012C27
:1040800006D19DF8020040F002008DF8020005E024
:104090009DF8020020F002008DF80200012001903E
:1040A00003200B9041F2883201A91F48FEF7ACFBB8
:1040B00008B10120BBE741F2883269461A48FEF791
:1040C000E9FE08B10120B2E741F288311648FFF756
:1040D0004BFE08B10120AAE71520019002200B90A9
:1040E00041F2883201A91048FEF78EFB08B1012089
:1040F0009DE741F2883269460B48FEF74DFE08B154
:10410000012094E79DF8010000F0020008B9012C9D
:1041100005D09DF8010000F0020010B10CB901209B
:1041200085E7002083E700003CFC002030B58FB01D
:1041300005460C464FF48070079005200190002042
:10414000089009904FF080700A900020069001209E
:104150000B9000200C900D900E9041F2883201A936
:104160003148FEF751FB10B101200FB030BD41F2D4
:10417000883269462C48FEF70FFE08B10120F4E7AB
:10418000294800F0ABF808B10120EEE7012C05D179
:104190009DF8000040F04000009004E09DF8000011
:1041A00020F0400000900120019041F2883201A9E6
:1041B0001D48FEF729FB08B10120D6E741F28832FD
:1041C00069461948FEF766FE08B10120CDE741F2C5
:1041D00088311548FFF7C8FD08B10120C5E7052063
:1041E000019041F2883201A90F48FEF70DFB08B19A
:1041F0000120BAE741F2883269460B48FEF7CCFD50
:1042000008B10120B1E79DF8000000F0400008B9B6
:10421000012C05D09DF8000000F0400010B10CB951
:104220000120A2E70020A0E73CFC002010B58EB0E2
:1042300004464FF48070069066200090002007909E
:104240000890099005900B900C900D9041F28832E7
:1042500069460E48FEF7D8FA10B101200EB010BD25
:104260009920009041F2883269460848FEF7CCFA5E
:1042700008B10120F2E741F288310448FFF774FDEC
:1042800008B10120EAE70020E8E700003CFC00203C
:104290002DE9F04104460E4617469846069D12E069
:1042A000681C80B1FEF7A6F8A0EB0800A84200D871
:1042B0004DB9042084F83900E06B40F00100E06360
:1042C0000120BDE8F08120688068304008B10120FD
:1042D00000E00020B842E3D10020F2E710B594B02E
:1042E00004464FF480700C900620069000200D903C
:1042F0000E900F900B9011901290139041F2883213
:1043000006A91148FEF780FA10B1012014B010BDC3
:1043100002200090019000200490012003901020C2
:10432000029080040590052006904FF080700F9059
:1043300041F288336A4606A90348FEF7FFF908B13F
:104340000120E3E70020E1E73CFC002010B5024833
:10435000FEF7D2FA10BD00003CFC0020F8B5044680
:1043600000262348806D00F0805018B1FEF74EF90A
:10437000054616E000BF1E48806D40F080501C4985
:1043800088650846806D00F08050009000BF00BF37
:10439000FEF73CF905461648806D20F08050144920
:1043A0008865B5F5007F07D1802C10D9A02C01D9E4
:1043B00002260CE001260AE0802C01D9032606E043
:1043C000802C01D1022602E0702C00D10126094880
:1043D000006820F00700304306490860084600687E
:1043E00000F00700B04201D00120F8BD0020FCE73A
:1043F0000010024000200240704710B5FEF700F8A0
:1044000010BD00B597B0442106A8FCF7F3FD1421B8
:1044100001A8FCF7EFFD1020069001200C90002071
:104420000D9060200E9002201090012111911291A8
:10443000282113910721149102211591169106A8A4
:10444000FEF7E2FE08B1FDF72CF90F2001900320E2
:1044500002900020039004900590042101A8FEF72B
:1044600089FD08B1FDF71DF94FF40070FEF788F8DB
:1044700008B1FDF716F917B000BD0000104800683C
:1044800040F470000E4908600E48006840F00100DA
:104490000C49086000208860084600680A49084006
:1044A000084908608814C8600846006820F4802025
:1044B000086000208861C80301498039086070479E
:1044C00088ED00E000100240FFFFF6EA10B5034857
:1044D000FFF759FA0248FDF744FA10BDC8FC002066
:1044E00098FB002010B50268294B98420ED0B0F11D
:1044F000804F0BD0274B984208D0274B984205D0CD
:10450000264B984202D0264B984203D122F07002EB
:104510004B681A431E4B984217D0B0F1804F14D00D
:104520001C4B984211D01C4B98420ED01B4B98420A
:104530000BD01B4B984208D01A4B984205D01A4B0F
:10454000984202D0194B984203D122F44072CB68B2
:104550001A4322F080034C6943EA040202608B682C
:10456000C3620B6883620A4B98420BD00C4B984293
:1045700008D00C4B984205D00B4B984202D00B4B05
:10458000984201D10B6903630123436110BD000010
:10459000002C01400004004000080040000C0040D6
:1045A0000034014000400140004401400048014007
:1045B00000BFFEE702E008C8121F08C1002AFAD1B6
:1045C00070477047002001E001C1121F002AFBD193
:1045D000704700000146B5EEC00AF1EE10FA05DBA7
:1045E000F1EEC00AC1ED000A00207047DFED030ABA
:1045F000C1ED000A4FF0FF30F7E7000000000000B7
:1046000000B52DED0A8B83B04F4890ED000AB0EE57
:10461000408A90ED010AF0EE409A90ED020AB0EE69
:1046200040AA90ED030AF0EE408A38EE280AB0EE78
:10463000409A29EE090AF0EE40CA28EE280A09EE4F
:10464000CA0AF0EE40BAB1EE001AF0EE6C0A41EE82
:104650006B0AB0EE600A02A8FFF7BCFF9DED020AEC
:1046600039EE000AF0EE000A80EE201AF0EE41AAC0
:104670009DED020A39EE400AF0EE000A80EE201AA3
:10468000B0EE41BA314880ED00BA9FED310A80EDBD
:10469000010A9FED2F0A80ED020AC0ED03AA38EE51
:1046A0006A0A2C4880ED000AC0ED019A80ED02AA4A
:1046B00038EECB0A80ED030A90ED000A20EE000AE6
:1046C000D0ED020A90ED021A00EE810AB0EE40CA67
:1046D00001A8B0EE4C0AFFF77DFF1E4890ED000ADE
:1046E000DDED010A80EE201A80ED001A90ED020A3D
:1046F000DDED010A80EE201A80ED021A90ED010A2C
:1047000020EE000AD0ED030A90ED031A00EE810AB4
:10471000B0EE40CA01A8B0EE4C0AFFF75BFF0D48AF
:1047200090ED010ADDED010A80EE201A80ED011AFC
:1047300090ED030ADDED010A80EE201A80ED031AE8
:1047400003B000F009B800BD88FB002028FB002062
:104750000000000058FB0020BDEC088BBDEC02CB34
:10476000FFF7F1BF70B52DED028B04460D461646DE
:1047700000200EE004EB8001D1ED000A04EB800183
:1047800091ED001AB0EE480A00EE810AB0EE408AC0
:10479000401CA842EEDB3046B0EE480AFFF71AFF95
:1047A000BDEC028B70BD00002DED088B82B0FDF7D3
:1047B0002FFEFFF726FEFFF727FAFFF7FBF9FFF7BB
:1047C000C7F9FFF769FAFFF785FAFE48FFF7B8F86F
:1047D000FCF7DAFD4FF00008B8F1000F01D0FCF74C
:1047E000A7FD0124022503260427B8F1000F7DD080
:1047F0000020F549086091E0F3480068401C4FF440
:104800007A7190FBF1F201FB120058B9CA00EF482F
:104810000168EF48FCF778FEEC48006800F5FA50B4
:10482000EA490860E84800684FF4C87148434FF40B
:104830007A5190FBF1F201FB12094846FCF75AFC51
:104840009FEDE40B53EC102BFCF7DFFBFCF78EFC29
:1048500009EE100ADC4800684FF42F7148434FF40A
:104860007A5190FBF1F201FB12094846FCF742FC39
:104870009FEDD80B53EC102BFCF7C7FBFCF776FC35
:1048800009EE900AB0EE490AFBF724FEF0EE408AEA
:10489000B0EE690AFBF71EFEB0EE408ACA48006817
:1048A00040004FF4FA6190FBF1F201FB1200C8499D
:1048B00001EB800000EE104AB8EEC00A60EE280A54
:1048C00000EE105AB8EEC01AB0EE480A41EE000AE7
:1048D000C0ED000ABC4800684000401C4FF4FA617B
:1048E00090FBF1F201FB1200B94900E01CE001EB82
:1048F000800000EE106AB8EEC00A60EE280A00EEF2
:10490000107AB8EEC01AB0EE480A41EE000AC0EDC7
:10491000000AAD480068401CAB490860AA4800681E
:10492000B0F5FA4FFFF668AF0020A74908600DE028
:104930009FEDAA0AA648A449096800EB810080ED12
:10494000000AA1480068401C9F4908609E48006812
:10495000B0F5FA6FECDB00209C49086032E04FF4C0
:10496000FA529A4801689A48FCF794FD9748006803
:1049700000F5FA5095490860002020E0014600EB60
:10498000D1725210A0EB420262B1914901EB800159
:1049900091ED000A9249D1ED000A30EE200A81ED36
:1049A000000A0BE08A4901EB800191ED000A8D4974
:1049B000D1ED000A30EE200A81ED000A401CB0F56E
:1049C000FA6FDBDB81480068B0F57A3FC7DB8448CB
:1049D00090ED000ADFED840A80EE201A80ED001AC7
:1049E000804890ED000ADFED800A80EE201A80ED0D
:1049F000001A00207449086021E07349086800EB40
:104A0000D0714910A0EB410151B1754890ED000AF9
:104A100076486D49096800EB810080ED000A09E0E5
:104A2000704890ED000A71486749096800EB810001
:104A300080ED000A64480068401C634908606248D1
:104A40000068B0F5FA6FD8DB614B02224FF47A713F
:104A50006748FBF70DFE674B02224FF47A716648F8
:104A6000FBF706FE654B4FF47A7202216448FBF7B0
:104A7000FFFD5E4B02224FF47A716248FBF7F8FDAE
:104A8000614B022211466148FBF7F2FD604B0222A6
:104A900011466048FBF7ECFD5F4B022211465F4870
:104AA000FBF7E6FD5E4B022211465E48FBF7E0FD98
:104AB0005D4B012202215D48FBF7DAFD5C4B0122D0
:104AC00002215C48FBF7D4FD5B4B012202215B48CD
:104AD000FBF7CEFD5A4B012202215A48FBF7C8FDD5
:104AE000594B012202215948FBF7C2FD584B4FF4A4
:104AF0007A7202215748FBF7BBFD574B01224FF456
:104B00007A715648FBF7B4FD554B01224FF47A7188
:104B10005448FBF7ADFD544B01224FF47A715348D2
:104B2000FBF7A6FD524B022211465248FBF7A0FDAF
:104B3000514B022211465148FBF79AFD504B02227D
:104B40004FF47A714F48FBF793FD4F4B0222114609
:104B50004E48FBF78DFD00201C49086021E14FF411
:104B6000FA521A4801681A48FCF794FC1748006882
:104B700000F5FA5015490860002013490860DCE090
:104B80001149086800EBD0714910A0EB4101B9B19F
:104B90000F480D49096800EB810090ED000A3C4880
:104BA000D0ED000AB4EEE00AF1EE10FA74DD084828
:104BB0000549096800EB810090ED000A344869E07E
:104BC00084E069E0C8FC002000000020040100200F
:104BD000C8100020C94BADB465BC393F00000000CF
:104BE000080100200C0100200000FA46C88D0020BA
:104BF00004000020083000200C000020484F002056
:104C0000140000202400002088FB0020DC0000208D
:104C100028FB00204C00002058FB002064000020EE
:104C200068FB00206C0000207C0000208400002035
:104C30009C000020A4000020AC000020B400002054
:104C4000BC000020C4000020CC000020D4000020C4
:104C500008AD00202C00002048CC002034000020AB
:104C6000E8DB00203C00002088EB0020440000200E
:104C700038FB00205400002078FB00207400002046
:104C8000886E00201C00002048FB00205C000020F3
:104C90001001002080ED000AFD48FE49096800EB84
:104CA000810090ED000AFC48D0ED000AB4EEE00A65
:104CB000F1EE10FA3CD2F648F649096800EB8100A3
:104CC00090ED000AF44880ED000A31E0F048F14927
:104CD000096800EB810090ED000AF048D0ED000A71
:104CE000B4EEE00AF1EE10FA09DDE948E949096895
:104CF00000EB810090ED000AE84880ED000AE448EE
:104D0000E449096800EB810090ED000AE448D0ED29
:104D1000000AB4EEE00AF1EE10FA09D2DC48DD49EF
:104D2000096800EB810090ED000ADD4880ED000A83
:104D3000D8480068401CD7490860D6480068B0F5DC
:104D4000FA6FFFF61DAFD74AD749D848FCF73AF8B3
:104D5000D749D448FCF7BAF8D64AD249D448FBF729
:104D600027FFD54AD549D348FBF7FEFB0020C949A8
:104D7000086012E0D248C749096800EB810090ED55
:104D8000000AD048C349096800EB810080ED000AA1
:104D9000C0480068401CBF490860BE48006804283D
:104DA000E8DBC9480068B0F57A3FFFF6D8AEC349E2
:104DB0009FEDC60A0846FBF79DFFFFF721FCC4489C
:104DC000D0ED000AB0EE600AC248FFF703FC1FED09
:104DD0007D0AC04880ED010ABD48D0ED030AB0EE5F
:104DE000600ABC480C30FFF7F5FB1FED840AB94898
:104DF00080ED020AB849B948FBF73EFCB849AE4815
:104E0000FCF764F8B54AB649B348FBF7D1FE9FED0D
:104E1000B50AB54880ED000A9FEDB40A80ED010A9D
:104E200001AA0221FFF79EFC9DED010AF7EE000AA0
:104E300080EE801AB0EE41AAAD49B0EE4A0AAD4804
:104E4000FBF758FF1FED9B0AAB4880ED000A1FEDF2
:104E50009D0A80ED010A00208E490860CBE0022304
:104E6000A14AA549A548FBF7CBFA01AA02219E4811
:104E7000FFF778FC0198FCF74EF941EC1A0B9FED17
:104E8000A00B53EC102BFCF759F900D2B9E0022328
:104E9000954A99499948FBF793F901AA022192484A
:104EA000FFF760FC0198FCF736F941EC1A0B9FED17
:104EB000940B53EC102BFCF741F900D2A1E01FED4D
:104EC000B90A914880ED000A1FEDBC0A80ED010A85
:104ED0008A4890ED000A884880ED000A874890EDE6
:104EE000010A854880ED010A00207749086057E0F3
:104EF0004FF4FA52744801686548FCF7CBFA7248DF
:104F0000006800F5FA5070490860804A66496748B1
:104F1000FBF758FF66497D48FBF7D8FF7C4A644998
:104F20006E48FBF745FE5F497948FBF7CFFF794AAA
:104F30006F495C48FBF73CFE774A6D495948FBF7DF
:104F400037FE4FF47A73754A75497648FBF7A2F934
:104F50004FF47A73734A71497148FBF79BF9654ABC
:104F60006D496B48FBF724FE02226F499FED6F0AE3
:104F70005D48FBF7F9F902236D4A63496A48FBF77C
:104F80001FF900200AE06A4901EB800191ED000A57
:104F90005D4901EB800181ED000A401C0228F2DB33
:104FA00049480068B0F57A3FA2DB02224E49B0EED4
:104FB000080A5248FBF7D8F902235D4A4A49524889
:104FC000FBF71EFA01AA02215948FFF7CBFB9DED22
:104FD000010AF7EE000A80EE801AB0EE41AA022222
:104FE0004649B0EE4A0A5248FBF7BEF92948006824
:104FF000401C2849086027480068B0F57A7FFFF612
:105000002EAF00BF3D4890ED000A4A4880ED000AEF
:105010003A4890ED010A474880ED010A374890ED83
:10502000010AB1EE400A434880ED020A334890ED90
:10503000000A404880ED030A3F4A28492648FBF70A
:10504000B7FD4FF4FA52204801681148FCF722FAE4
:105050001D48006800F5FA501B49086000204FF415
:105060007A73364A014600903548FCF755FD00201A
:105070004FF47A73334A102100903148FCF74CFD0D
:10508000314890ED000A0448D0ED000A5EE00000CF
:10509000C81000200000002014010020180100208A
:1050A0001C0100201C00002024000020040000201F
:1050B000140000204C00002064000020DC000020D0
:1050C00058FB002088FB00200401002079130338DE
:1050D00028FB002068FB0020540000206C0000200A
:1050E000740000209A99D93FAC000020CDCCCC3E72
:1050F00084000020B40000209C0000207C000020E0
:105100002D431CEBE2361A3F8C0000200C000020DF
:105110002C0000203400002044000020E8DB0020A8
:1051200048CC002088EB0020BC0000206F12033820
:10513000CC00002038FB00205C000020280100206B
:1051400098FB0020F80800201001002030EE600AD3
:105150000F4880ED000A0F4890ED000A0E48D0ED90
:10516000000A30EE600A0B4880ED000A0B4B4FF44A
:105170007A7202210A48FBF77BFA07E009480068C7
:10518000B0F57A3F02DB002006490860F6E7000030
:1051900010010020180100201C010020C88D0020F3
:1051A0002400002004010020000000000000000096
:1051B00001020304060708090000000001020304BD
:1051C000A0860100400D0300801A060000350C0087
:1051D00040420F0080841E0000093D0000127A004A
:1051E0000024F40000366E010048E801006CDC0287
:1051F00000000000920E493CB10AC93C2BC3163D89
:105200002EFB483D752B7B3D04A9963D80B6AF3DF6
:1052100036BDC83D2FBCE13D73B2FA3D87CF093E94
:105220008340163EB5AB223EA2102F3ECF6E3B3ED2
:10523000C2C5473E0115543E135C603E7F9A6C3EEA
:10524000CCCF783EC07D823E938E883E229A8E3EA1
:1052500032A0943E86A09A3EE59AA03E128FA63ECA
:10526000D47CAC3EEF63B23E2A44B83E491DBE3EFC
:1052700015EFC33E53B9C93ECA7BCF3E4136D53E3A
:1052800080E8DA3E4F92E03E7533E63EBBCBEB3E24
:10529000EA5AF13ECBE0F63E275DFC3EE4E7003FF4
:1052A0003D9C033F824B063F9BF5083F6B9A0B3FAB
:1052B000DA390E3FCDD3103F2A68133FD9F6153F98
:1052C000C07F183FC6021B3FD17F1D3FCBF61F3F5B
:1052D0009967223F25D2243F5636273F1594293F10
:1052E0004AEB2B3FDE3B2E3FBB85303FC9C8323FE8
:1052F000F304353F233A373F4268393F3B8F3B3F0A
:10530000F9AE3D3F67C73F3F70D8413F01E2433FA1
:1053100003E4453F65DE473F12D1493FF8BB4B3FB1
:10532000029F4D3F207A4F3F3D4D513F4918533F1B
:1053300031DB543FE595563F5348583F6AF2593F99
:105340001A945B3F532D5D3F05BE5E3F2146603F93
:1053500097C5613F5A3C633F59AA643F880F663F37
:10536000D86B673F3CBF683FA7096A3F0C4B6B3F58
:105370005E836C3F93B26D3F9ED86E3F73F56F3F77
:105380000809713F5213723F4714733FDD0B743F9E
:105390000BFA743FC6DE753F07BA763FC58B773F81
:1053A000F853783F9812793F9DC7793F02737A3F4F
:1053B000BE147B3FCDAC7B3F283B7C3FC9BF7C3FCD
:1053C000AC3A7D3FCCAB7D3F23137E3FB0707E3F38
:1053D0006DC47E3F580E7F3F6D4E7F3FAB847F3F55
:1053E0000FB17F3F97D37F3F43EC7F3F11FB7F3F60
:1053F0000000803F11FB7F3F43EC7F3F97D37F3F0F
:105400000FB17F3FAB847F3F6D4E7F3F580E7F3F94
:105410006DC47E3FB0707E3F23137E3FCCAB7D3F9B
:10542000AC3A7D3FC9BF7C3F283B7C3FCDAC7B3F46
:10543000BE147B3F02737A3F9DC7793F9812793F34
:10544000F853783FC58B773F07BA763FC6DE753F86
:105450000BFA743FDD0B743F4714733F5213723FD6
:105460000809713F73F56F3F9ED86E3F93B26D3F51
:105470005E836C3F0C4B6B3FA7096A3F3CBF683FA4
:10548000D86B673F880F663F59AA643F5A3C633F19
:1054900097C5613F2146603F05BE5E3F532D5D3F8E
:1054A0001A945B3F6AF2593F5348583FE595563F7F
:1054B00031DB543F4918533F3D4D513F207A4F3F18
:1054C000029F4D3FF8BB4B3F12D1493F65DE473F3E
:1054D00003E4453F01E2433F70D8413F67C73F3F88
:1054E000F9AE3D3F3B8F3B3F4268393F233A373F60
:1054F000F304353FC9C8323FBB85303FDE3B2E3F0A
:105500004AEB2B3F1594293F5636273F25D2243F9F
:105510009967223FCBF61F3FD17F1D3FC6021B3F3D
:10552000C07F183FD9F6153F2A68133FCDD3103FEF
:10553000DA390E3F6B9A0B3F9BF5083F824B063FD3
:105540003D9C033FE4E7003F275DFC3ECBE0F63E99
:10555000EA5AF13EBBCBEB3E7533E63E4F92E03E5E
:1055600080E8DA3E4136D53ECA7BCF3E53B9C93ECC
:1055700015EFC33E491DBE3E2A44B83EEF63B23E1E
:10558000D47CAC3E128FA63EE59AA03E86A09A3E01
:1055900032A0943E229A8E3E938E883EC07D823EFB
:1055A000CCCF783E7F9A6C3E135C603E0115543E32
:1055B000C2C5473ECF6E3B3EA2102F3EB5AB223E4A
:1055C0008340163E87CF093E73B2FA3D2FBCE13DC2
:1055D00036BDC83D80B6AF3D04A9963D752B7B3DD9
:1055E0002EFB483D2BC3163DB10AC93C920E493CE7
:1055F00000000000920E49BCB10AC9BC2BC316BD05
:105600002EFB48BD752B7BBD04A996BD80B6AFBDF2
:1056100036BDC8BD2FBCE1BD73B2FABD87CF09BE90
:10562000834016BEB5AB22BEA2102FBECF6E3BBECE
:10563000C2C547BE011554BE135C60BE7F9A6CBEE6
:10564000CCCF78BEC07D82BE938E88BE229A8EBE9D
:1056500032A094BE86A09ABEE59AA0BE128FA6BEC6
:10566000D47CACBEEF63B2BE2A44B8BE491DBEBEF8
:1056700015EFC3BE53B9C9BECA7BCFBE4136D5BE36
:1056800080E8DABE4F92E0BE7533E6BEBBCBEBBE20
:10569000EA5AF1BECBE0F6BE275DFCBEE4E700BFF0
:1056A0003D9C03BF824B06BF9BF508BF6B9A0BBFA7
:1056B000DA390EBFCDD310BF2A6813BFD9F615BF94
:1056C000C07F18BFC6021BBFD17F1DBFCBF61FBF57
:1056D000996722BF25D224BF563627BF159429BF0C
:1056E0004AEB2BBFDE3B2EBFBB8530BFC9C832BFE4
:1056F000F30435BF233A37BF426839BF3B8F3BBF06
:10570000F9AE3DBF67C73FBF70D841BF01E243BF9D
:1057100003E445BF65DE47BF12D149BFF8BB4BBFAD
:10572000029F4DBF207A4FBF3D4D51BF491853BF17
:1057300031DB54BFE59556BF534858BF6AF259BF95
:105740001A945BBF532D5DBF05BE5EBF214660BF8F
:1057500097C561BF5A3C63BF59AA64BF880F66BF33
:10576000D86B67BF3CBF68BFA7096ABF0C4B6BBF54
:105770005E836CBF93B26DBF9ED86EBF73F56FBF73
:10578000080971BF521372BF471473BFDD0B74BF9A
:105790000BFA74BFC6DE75BF07BA76BFC58B77BF7D
:1057A000F85378BF981279BF9DC779BF02737ABF4B
:1057B000BE147BBFCDAC7BBF283B7CBFC9BF7CBFC9
:1057C000AC3A7DBFCCAB7DBF23137EBFB0707EBF34
:1057D0006DC47EBF580E7FBF6D4E7FBFAB847FBF51
:1057E0000FB17FBF97D37FBF43EC7FBF11FB7FBF5C
:1057F000000080BF11FB7FBF43EC7FBF97D37FBF0B
:105800000FB17FBFAB847FBF6D4E7FBF580E7FBF90
:105810006DC47EBFB0707EBF23137EBFCCAB7DBF97
:10582000AC3A7DBFC9BF7CBF283B7CBFCDAC7BBF42
:10583000BE147BBF02737ABF9DC779BF981279BF30
:10584000F85378BFC58B77BF07BA76BFC6DE75BF82
:105850000BFA74BFDD0B74BF471473BF521372BFD2
:10586000080971BF73F56FBF9ED86EBF93B26DBF4D
:105870005E836CBF0C4B6BBFA7096ABF3CBF68BFA0
:10588000D86B67BF880F66BF59AA64BF5A3C63BF15
:1058900097C561BF214660BF05BE5EBF532D5DBF8A
:1058A0001A945BBF6AF259BF534858BFE59556BF7B
:1058B00031DB54BF491853BF3D4D51BF207A4FBF14
:1058C000029F4DBFF8BB4BBF12D149BF65DE47BF3A
:1058D00003E445BF01E243BF70D841BF67C73FBF84
:1058E000F9AE3DBF3B8F3BBF426839BF233A37BF5C
:1058F000F30435BFC9C832BFBB8530BFDE3B2EBF06
:105900004AEB2BBF159429BF563627BF25D224BF9B
:10591000996722BFCBF61FBFD17F1DBFC6021BBF39
:10592000C07F18BFD9F615BF2A6813BFCDD310BFEB
:10593000DA390EBF6B9A0BBF9BF508BF824B06BFCF
:105940003D9C03BFE4E700BF275DFCBECBE0F6BE95
:10595000EA5AF1BEBBCBEBBE7533E6BE4F92E0BE5A
:1059600080E8DABE4136D5BECA7BCFBE53B9C9BEC8
:1059700015EFC3BE491DBEBE2A44B8BEEF63B2BE1A
:10598000D47CACBE128FA6BEE59AA0BE86A09ABEFD
:1059900032A094BE229A8EBE938E88BEC07D82BEF7
:1059A000CCCF78BE7F9A6CBE135C60BE011554BE2E
:1059B000C2C547BECF6E3BBEA2102FBEB5AB22BE46
:1059C000834016BE87CF09BE73B2FABD2FBCE1BDBE
:1059D00036BDC8BD80B6AFBD04A996BD752B7BBDD5
:1059E0002EFB48BD2BC316BDB10AC9BC920E49BCE3
:1059F00000000080145A0008000000202801000068
:105A0000B44500083C5B000828010020E0FF0000CE
:105A1000C445000800000000000000000000000075
:105A20000000000000000000000000000000000076
:105A30000000000000000000000000000000000066
:105A40000000000000000000000000000000000056
:105A50000000000000000000000000000000000046
:105A60000000000000000000000000000000000036
:105A70000000000000000000000000000000000026
:105A80000000000000000000000000000000000016
:105A90000000000000000000000000000000000006
:105AA00000000000000000000000000000000000F6
:105AB00000000000000000000000000000000000E6
:105AC00000000000000000000000000000000000D6
:105AD00000000000000000000000000000000000C6
